{
  "_format": "hh-sol-artifact-1",
  "contractName": "SimpleToken",
  "sourceName": "contracts/SimpleToken.sol",
  "abi": [
    {
      "inputs": [
        {
          "internalType": "string",
          "name": "name",
          "type": "string"
        },
        {
          "internalType": "string",
          "name": "symbol",
          "type": "string"
        },
        {
          "internalType": "uint8",
          "name": "decimals_",
          "type": "uint8"
        },
        {
          "internalType": "uint256",
          "name": "initial_supply",
          "type": "uint256"
        }
      ],
      "stateMutability": "nonpayable",
      "type": "constructor"
    },
    {
      "anonymous": false,
      "inputs": [
        {
          "indexed": true,
          "internalType": "address",
          "name": "owner",
          "type": "address"
        },
        {
          "indexed": true,
          "internalType": "address",
          "name": "spender",
          "type": "address"
        },
        {
          "indexed": false,
          "internalType": "uint256",
          "name": "value",
          "type": "uint256"
        }
      ],
      "name": "Approval",
      "type": "event"
    },
    {
      "anonymous": false,
      "inputs": [
        {
          "indexed": false,
          "internalType": "address",
          "name": "account",
          "type": "address"
        }
      ],
      "name": "Paused",
      "type": "event"
    },
    {
      "anonymous": false,
      "inputs": [
        {
          "indexed": true,
          "internalType": "bytes32",
          "name": "role",
          "type": "bytes32"
        },
        {
          "indexed": true,
          "internalType": "bytes32",
          "name": "previousAdminRole",
          "type": "bytes32"
        },
        {
          "indexed": true,
          "internalType": "bytes32",
          "name": "newAdminRole",
          "type": "bytes32"
        }
      ],
      "name": "RoleAdminChanged",
      "type": "event"
    },
    {
      "anonymous": false,
      "inputs": [
        {
          "indexed": true,
          "internalType": "bytes32",
          "name": "role",
          "type": "bytes32"
        },
        {
          "indexed": true,
          "internalType": "address",
          "name": "account",
          "type": "address"
        },
        {
          "indexed": true,
          "internalType": "address",
          "name": "sender",
          "type": "address"
        }
      ],
      "name": "RoleGranted",
      "type": "event"
    },
    {
      "anonymous": false,
      "inputs": [
        {
          "indexed": true,
          "internalType": "bytes32",
          "name": "role",
          "type": "bytes32"
        },
        {
          "indexed": true,
          "internalType": "address",
          "name": "account",
          "type": "address"
        },
        {
          "indexed": true,
          "internalType": "address",
          "name": "sender",
          "type": "address"
        }
      ],
      "name": "RoleRevoked",
      "type": "event"
    },
    {
      "anonymous": false,
      "inputs": [
        {
          "indexed": true,
          "internalType": "address",
          "name": "from",
          "type": "address"
        },
        {
          "indexed": true,
          "internalType": "address",
          "name": "to",
          "type": "address"
        },
        {
          "indexed": false,
          "internalType": "uint256",
          "name": "value",
          "type": "uint256"
        }
      ],
      "name": "Transfer",
      "type": "event"
    },
    {
      "anonymous": false,
      "inputs": [
        {
          "indexed": false,
          "internalType": "address",
          "name": "account",
          "type": "address"
        }
      ],
      "name": "Unpaused",
      "type": "event"
    },
    {
      "inputs": [],
      "name": "DEFAULT_ADMIN_ROLE",
      "outputs": [
        {
          "internalType": "bytes32",
          "name": "",
          "type": "bytes32"
        }
      ],
      "stateMutability": "view",
      "type": "function"
    },
    {
      "inputs": [],
      "name": "INITIAL_SUPPLY",
      "outputs": [
        {
          "internalType": "uint256",
          "name": "",
          "type": "uint256"
        }
      ],
      "stateMutability": "view",
      "type": "function"
    },
    {
      "inputs": [],
      "name": "MINTER_ROLE",
      "outputs": [
        {
          "internalType": "bytes32",
          "name": "",
          "type": "bytes32"
        }
      ],
      "stateMutability": "view",
      "type": "function"
    },
    {
      "inputs": [],
      "name": "PAUSER_ROLE",
      "outputs": [
        {
          "internalType": "bytes32",
          "name": "",
          "type": "bytes32"
        }
      ],
      "stateMutability": "view",
      "type": "function"
    },
    {
      "inputs": [
        {
          "internalType": "address",
          "name": "owner",
          "type": "address"
        },
        {
          "internalType": "address",
          "name": "spender",
          "type": "address"
        }
      ],
      "name": "allowance",
      "outputs": [
        {
          "internalType": "uint256",
          "name": "",
          "type": "uint256"
        }
      ],
      "stateMutability": "view",
      "type": "function"
    },
    {
      "inputs": [
        {
          "internalType": "address",
          "name": "spender",
          "type": "address"
        },
        {
          "internalType": "uint256",
          "name": "amount",
          "type": "uint256"
        }
      ],
      "name": "approve",
      "outputs": [
        {
          "internalType": "bool",
          "name": "",
          "type": "bool"
        }
      ],
      "stateMutability": "nonpayable",
      "type": "function"
    },
    {
      "inputs": [
        {
          "internalType": "address",
          "name": "account",
          "type": "address"
        }
      ],
      "name": "balanceOf",
      "outputs": [
        {
          "internalType": "uint256",
          "name": "",
          "type": "uint256"
        }
      ],
      "stateMutability": "view",
      "type": "function"
    },
    {
      "inputs": [
        {
          "internalType": "uint256",
          "name": "amount",
          "type": "uint256"
        }
      ],
      "name": "burn",
      "outputs": [],
      "stateMutability": "nonpayable",
      "type": "function"
    },
    {
      "inputs": [
        {
          "internalType": "address",
          "name": "account",
          "type": "address"
        },
        {
          "internalType": "uint256",
          "name": "amount",
          "type": "uint256"
        }
      ],
      "name": "burnFrom",
      "outputs": [],
      "stateMutability": "nonpayable",
      "type": "function"
    },
    {
      "inputs": [],
      "name": "decimals",
      "outputs": [
        {
          "internalType": "uint8",
          "name": "",
          "type": "uint8"
        }
      ],
      "stateMutability": "view",
      "type": "function"
    },
    {
      "inputs": [
        {
          "internalType": "address",
          "name": "spender",
          "type": "address"
        },
        {
          "internalType": "uint256",
          "name": "subtractedValue",
          "type": "uint256"
        }
      ],
      "name": "decreaseAllowance",
      "outputs": [
        {
          "internalType": "bool",
          "name": "",
          "type": "bool"
        }
      ],
      "stateMutability": "nonpayable",
      "type": "function"
    },
    {
      "inputs": [
        {
          "internalType": "bytes32",
          "name": "role",
          "type": "bytes32"
        }
      ],
      "name": "getRoleAdmin",
      "outputs": [
        {
          "internalType": "bytes32",
          "name": "",
          "type": "bytes32"
        }
      ],
      "stateMutability": "view",
      "type": "function"
    },
    {
      "inputs": [
        {
          "internalType": "bytes32",
          "name": "role",
          "type": "bytes32"
        },
        {
          "internalType": "uint256",
          "name": "index",
          "type": "uint256"
        }
      ],
      "name": "getRoleMember",
      "outputs": [
        {
          "internalType": "address",
          "name": "",
          "type": "address"
        }
      ],
      "stateMutability": "view",
      "type": "function"
    },
    {
      "inputs": [
        {
          "internalType": "bytes32",
          "name": "role",
          "type": "bytes32"
        }
      ],
      "name": "getRoleMemberCount",
      "outputs": [
        {
          "internalType": "uint256",
          "name": "",
          "type": "uint256"
        }
      ],
      "stateMutability": "view",
      "type": "function"
    },
    {
      "inputs": [
        {
          "internalType": "bytes32",
          "name": "role",
          "type": "bytes32"
        },
        {
          "internalType": "address",
          "name": "account",
          "type": "address"
        }
      ],
      "name": "grantRole",
      "outputs": [],
      "stateMutability": "nonpayable",
      "type": "function"
    },
    {
      "inputs": [
        {
          "internalType": "bytes32",
          "name": "role",
          "type": "bytes32"
        },
        {
          "internalType": "address",
          "name": "account",
          "type": "address"
        }
      ],
      "name": "hasRole",
      "outputs": [
        {
          "internalType": "bool",
          "name": "",
          "type": "bool"
        }
      ],
      "stateMutability": "view",
      "type": "function"
    },
    {
      "inputs": [
        {
          "internalType": "address",
          "name": "spender",
          "type": "address"
        },
        {
          "internalType": "uint256",
          "name": "addedValue",
          "type": "uint256"
        }
      ],
      "name": "increaseAllowance",
      "outputs": [
        {
          "internalType": "bool",
          "name": "",
          "type": "bool"
        }
      ],
      "stateMutability": "nonpayable",
      "type": "function"
    },
    {
      "inputs": [
        {
          "internalType": "address",
          "name": "to",
          "type": "address"
        },
        {
          "internalType": "uint256",
          "name": "amount",
          "type": "uint256"
        }
      ],
      "name": "mint",
      "outputs": [],
      "stateMutability": "nonpayable",
      "type": "function"
    },
    {
      "inputs": [],
      "name": "name",
      "outputs": [
        {
          "internalType": "string",
          "name": "",
          "type": "string"
        }
      ],
      "stateMutability": "view",
      "type": "function"
    },
    {
      "inputs": [],
      "name": "pause",
      "outputs": [],
      "stateMutability": "nonpayable",
      "type": "function"
    },
    {
      "inputs": [],
      "name": "paused",
      "outputs": [
        {
          "internalType": "bool",
          "name": "",
          "type": "bool"
        }
      ],
      "stateMutability": "view",
      "type": "function"
    },
    {
      "inputs": [
        {
          "internalType": "bytes32",
          "name": "role",
          "type": "bytes32"
        },
        {
          "internalType": "address",
          "name": "account",
          "type": "address"
        }
      ],
      "name": "renounceRole",
      "outputs": [],
      "stateMutability": "nonpayable",
      "type": "function"
    },
    {
      "inputs": [
        {
          "internalType": "bytes32",
          "name": "role",
          "type": "bytes32"
        },
        {
          "internalType": "address",
          "name": "account",
          "type": "address"
        }
      ],
      "name": "revokeRole",
      "outputs": [],
      "stateMutability": "nonpayable",
      "type": "function"
    },
    {
      "inputs": [
        {
          "internalType": "bytes4",
          "name": "interfaceId",
          "type": "bytes4"
        }
      ],
      "name": "supportsInterface",
      "outputs": [
        {
          "internalType": "bool",
          "name": "",
          "type": "bool"
        }
      ],
      "stateMutability": "view",
      "type": "function"
    },
    {
      "inputs": [],
      "name": "symbol",
      "outputs": [
        {
          "internalType": "string",
          "name": "",
          "type": "string"
        }
      ],
      "stateMutability": "view",
      "type": "function"
    },
    {
      "inputs": [],
      "name": "totalSupply",
      "outputs": [
        {
          "internalType": "uint256",
          "name": "",
          "type": "uint256"
        }
      ],
      "stateMutability": "view",
      "type": "function"
    },
    {
      "inputs": [
        {
          "internalType": "address",
          "name": "to",
          "type": "address"
        },
        {
          "internalType": "uint256",
          "name": "amount",
          "type": "uint256"
        }
      ],
      "name": "transfer",
      "outputs": [
        {
          "internalType": "bool",
          "name": "",
          "type": "bool"
        }
      ],
      "stateMutability": "nonpayable",
      "type": "function"
    },
    {
      "inputs": [
        {
          "internalType": "address",
          "name": "from",
          "type": "address"
        },
        {
          "internalType": "address",
          "name": "to",
          "type": "address"
        },
        {
          "internalType": "uint256",
          "name": "amount",
          "type": "uint256"
        }
      ],
      "name": "transferFrom",
      "outputs": [
        {
          "internalType": "bool",
          "name": "",
          "type": "bool"
        }
      ],
      "stateMutability": "nonpayable",
      "type": "function"
    },
    {
      "inputs": [],
      "name": "unpause",
      "outputs": [],
      "stateMutability": "nonpayable",
      "type": "function"
    }
  ],
  "bytecode": "0x60806040523480156200001157600080fd5b5060405162003eb338038062003eb38339818101604052810190620000379190620007ba565b838381818160059080519060200190620000539291906200066a565b5080600690805190602001906200006c9291906200066a565b5050506000600760006101000a81548160ff021916908315150217905550620000ae6000801b620000a2620001ac60201b60201c565b620001b460201b60201c565b620000ef7f9f2df0fed2c77648de5860a4cc508cd0818c85b8b8a1ab4ceeef8d981c8956a6620000e3620001ac60201b60201c565b620001b460201b60201c565b620001307f65d7a28e3265b37a6474929f336521b332c1681b933f6cb9f3376673440d862a62000124620001ac60201b60201c565b620001b460201b60201c565b505081600760016101000a81548160ff021916908360ff1602179055508160ff16600a6200015f919062000aa4565b816200016c919062000be1565b600881905550620001a2338360ff16600a62000189919062000aa4565b8362000196919062000be1565b620001ca60201b60201c565b5050505062000d93565b600033905090565b620001c682826200034460201b60201c565b5050565b600073ffffffffffffffffffffffffffffffffffffffff168273ffffffffffffffffffffffffffffffffffffffff1614156200023d576040517f08c379a0000000000000000000000000000000000000000000000000000000008152600401620002349062000913565b60405180910390fd5b62000251600083836200038c60201b60201c565b8060046000828254620002659190620009ec565b9250508190555080600260008473ffffffffffffffffffffffffffffffffffffffff1673ffffffffffffffffffffffffffffffffffffffff1681526020019081526020016000206000828254620002bd9190620009ec565b925050819055508173ffffffffffffffffffffffffffffffffffffffff16600073ffffffffffffffffffffffffffffffffffffffff167fddf252ad1be2c89b69c2b068fc378daa952ba7f163c4a11628f55a4df523b3ef8360405162000324919062000957565b60405180910390a36200034060008383620003a960201b60201c565b5050565b6200035b8282620003ae60201b62000d431760201c565b6200038781600160008581526020019081526020016000206200049f60201b62000e231790919060201c565b505050565b620003a4838383620004d760201b62000e531760201c565b505050565b505050565b620003c082826200054760201b60201c565b6200049b57600160008084815260200190815260200160002060000160008373ffffffffffffffffffffffffffffffffffffffff1673ffffffffffffffffffffffffffffffffffffffff16815260200190815260200160002060006101000a81548160ff02191690831515021790555062000440620001ac60201b60201c565b73ffffffffffffffffffffffffffffffffffffffff168173ffffffffffffffffffffffffffffffffffffffff16837f2f8788117e7eff1d82e926ec794901d17c78024a50270940304540a733656f0d60405160405180910390a45b5050565b6000620004cf836000018373ffffffffffffffffffffffffffffffffffffffff1660001b620005b160201b60201c565b905092915050565b620004ef8383836200062b60201b62000eab1760201c565b620004ff6200063060201b60201c565b1562000542576040517f08c379a0000000000000000000000000000000000000000000000000000000008152600401620005399062000935565b60405180910390fd5b505050565b600080600084815260200190815260200160002060000160008373ffffffffffffffffffffffffffffffffffffffff1673ffffffffffffffffffffffffffffffffffffffff16815260200190815260200160002060009054906101000a900460ff16905092915050565b6000620005c583836200064760201b60201c565b6200062057826000018290806001815401808255809150506001900390600052602060002001600090919091909150558260000180549050836001016000848152602001908152602001600020819055506001905062000625565b600090505b92915050565b505050565b6000600760009054906101000a900460ff16905090565b600080836001016000848152602001908152602001600020541415905092915050565b828054620006789062000c8f565b90600052602060002090601f0160209004810192826200069c5760008555620006e8565b82601f10620006b757805160ff1916838001178555620006e8565b82800160010185558215620006e8579182015b82811115620006e7578251825591602001919060010190620006ca565b5b509050620006f79190620006fb565b5090565b5b8082111562000716576000816000905550600101620006fc565b5090565b6000620007316200072b84620009a8565b62000974565b9050828152602081018484840111156200074a57600080fd5b6200075784828562000c59565b509392505050565b600082601f8301126200077157600080fd5b8151620007838482602086016200071a565b91505092915050565b6000815190506200079d8162000d5f565b92915050565b600081519050620007b48162000d79565b92915050565b60008060008060808587031215620007d157600080fd5b600085015167ffffffffffffffff811115620007ec57600080fd5b620007fa878288016200075f565b945050602085015167ffffffffffffffff8111156200081857600080fd5b62000826878288016200075f565b93505060406200083987828801620007a3565b92505060606200084c878288016200078c565b91505092959194509250565b600062000867601f83620009db565b91507f45524332303a206d696e7420746f20746865207a65726f2061646472657373006000830152602082019050919050565b6000620008a9602a83620009db565b91507f45524332305061757361626c653a20746f6b656e207472616e7366657220776860008301527f696c6520706175736564000000000000000000000000000000000000000000006020830152604082019050919050565b6200090d8162000c42565b82525050565b600060208201905081810360008301526200092e8162000858565b9050919050565b6000602082019050818103600083015262000950816200089a565b9050919050565b60006020820190506200096e600083018462000902565b92915050565b6000604051905081810181811067ffffffffffffffff821117156200099e576200099d62000d23565b5b8060405250919050565b600067ffffffffffffffff821115620009c657620009c562000d23565b5b601f19601f8301169050602081019050919050565b600082825260208201905092915050565b6000620009f98262000c42565b915062000a068362000c42565b9250827fffffffffffffffffffffffffffffffffffffffffffffffffffffffffffffffff0382111562000a3e5762000a3d62000cc5565b5b828201905092915050565b6000808291508390505b600185111562000a9b5780860481111562000a735762000a7262000cc5565b5b600185161562000a835780820291505b808102905062000a938562000d52565b945062000a53565b94509492505050565b600062000ab18262000c42565b915062000abe8362000c42565b925062000aed7fffffffffffffffffffffffffffffffffffffffffffffffffffffffffffffffff848462000af5565b905092915050565b60008262000b07576001905062000bda565b8162000b17576000905062000bda565b816001811462000b30576002811462000b3b5762000b71565b600191505062000bda565b60ff84111562000b505762000b4f62000cc5565b5b8360020a91508482111562000b6a5762000b6962000cc5565b5b5062000bda565b5060208310610133831016604e8410600b841016171562000bab5782820a90508381111562000ba55762000ba462000cc5565b5b62000bda565b62000bba848484600162000a49565b9250905081840481111562000bd45762000bd362000cc5565b5b81810290505b9392505050565b600062000bee8262000c42565b915062000bfb8362000c42565b9250817fffffffffffffffffffffffffffffffffffffffffffffffffffffffffffffffff048311821515161562000c375762000c3662000cc5565b5b828202905092915050565b6000819050919050565b600060ff82169050919050565b60005b8381101562000c7957808201518184015260208101905062000c5c565b8381111562000c89576000848401525b50505050565b6000600282049050600182168062000ca857607f821691505b6020821081141562000cbf5762000cbe62000cf4565b5b50919050565b7f4e487b7100000000000000000000000000000000000000000000000000000000600052601160045260246000fd5b7f4e487b7100000000000000000000000000000000000000000000000000000000600052602260045260246000fd5b7f4e487b7100000000000000000000000000000000000000000000000000000000600052604160045260246000fd5b60008160011c9050919050565b62000d6a8162000c42565b811462000d7657600080fd5b50565b62000d848162000c4c565b811462000d9057600080fd5b50565b6131108062000da36000396000f3fe608060405234801561001057600080fd5b50600436106101cf5760003560e01c80635c975abb11610104578063a217fddf116100a2578063d539139311610071578063d539139314610556578063d547741f14610574578063dd62ed3e14610590578063e63ab1e9146105c0576101cf565b8063a217fddf146104a8578063a457c2d7146104c6578063a9059cbb146104f6578063ca15c87314610526576101cf565b80638456cb59116100de5780638456cb59146104205780639010d07c1461042a57806391d148541461045a57806395d89b411461048a576101cf565b80635c975abb146103b657806370a08231146103d457806379cc679014610404576101cf565b80632ff2e9dc11610171578063395093511161014b57806339509351146103445780633f4ba83a1461037457806340c10f191461037e57806342966c681461039a576101cf565b80632ff2e9dc146102ec578063313ce5671461030a57806336568abe14610328576101cf565b806318160ddd116101ad57806318160ddd1461025257806323b872dd14610270578063248a9ca3146102a05780632f2ff15d146102d0576101cf565b806301ffc9a7146101d457806306fdde0314610204578063095ea7b314610222575b600080fd5b6101ee60048036038101906101e991906122d2565b6105de565b6040516101fb9190612b1c565b60405180910390f35b61020c610658565b6040516102199190612b52565b60405180910390f35b61023c600480360381019061023791906121f5565b6106ea565b6040516102499190612b1c565b60405180910390f35b61025a61070d565b6040516102679190612db4565b60405180910390f35b61028a600480360381019061028591906121a6565b610717565b6040516102979190612b1c565b60405180910390f35b6102ba60048036038101906102b59190612231565b610746565b6040516102c79190612b37565b60405180910390f35b6102ea60048036038101906102e5919061225a565b610765565b005b6102f4610786565b6040516103019190612db4565b60405180910390f35b61031261078c565b60405161031f9190612dcf565b60405180910390f35b610342600480360381019061033d919061225a565b6107a3565b005b61035e600480360381019061035991906121f5565b610826565b60405161036b9190612b1c565b60405180910390f35b61037c61085d565b005b610398600480360381019061039391906121f5565b6108d7565b005b6103b460048036038101906103af91906122fb565b610955565b005b6103be610969565b6040516103cb9190612b1c565b60405180910390f35b6103ee60048036038101906103e99190612141565b610980565b6040516103fb9190612db4565b60405180910390f35b61041e600480360381019061041991906121f5565b6109c9565b005b6104286109e9565b005b610444600480360381019061043f9190612296565b610a63565b6040516104519190612b01565b60405180910390f35b610474600480360381019061046f919061225a565b610a92565b6040516104819190612b1c565b60405180910390f35b610492610afc565b60405161049f9190612b52565b60405180910390f35b6104b0610b8e565b6040516104bd9190612b37565b60405180910390f35b6104e060048036038101906104db91906121f5565b610b95565b6040516104ed9190612b1c565b60405180910390f35b610510600480360381019061050b91906121f5565b610c0c565b60405161051d9190612b1c565b60405180910390f35b610540600480360381019061053b9190612231565b610c2f565b60405161054d9190612db4565b60405180910390f35b61055e610c53565b60405161056b9190612b37565b60405180910390f35b61058e6004803603810190610589919061225a565b610c77565b005b6105aa60048036038101906105a5919061216a565b610c98565b6040516105b79190612db4565b60405180910390f35b6105c8610d1f565b6040516105d59190612b37565b60405180910390f35b60007f5a05180f000000000000000000000000000000000000000000000000000000007bffffffffffffffffffffffffffffffffffffffffffffffffffffffff1916827bffffffffffffffffffffffffffffffffffffffffffffffffffffffff19161480610651575061065082610eb0565b5b9050919050565b60606005805461066790612fdd565b80601f016020809104026020016040519081016040528092919081815260200182805461069390612fdd565b80156106e05780601f106106b5576101008083540402835291602001916106e0565b820191906000526020600020905b8154815290600101906020018083116106c357829003601f168201915b5050505050905090565b6000806106f5610f2a565b9050610702818585610f32565b600191505092915050565b6000600454905090565b600080610722610f2a565b905061072f8582856110fd565b61073a858585611189565b60019150509392505050565b6000806000838152602001908152602001600020600101549050919050565b61076e82610746565b6107778161140d565b6107818383611421565b505050565b60085481565b6000600760019054906101000a900460ff16905090565b6107ab610f2a565b73ffffffffffffffffffffffffffffffffffffffff168173ffffffffffffffffffffffffffffffffffffffff1614610818576040517f08c379a000000000000000000000000000000000000000000000000000000000815260040161080f90612d54565b60405180910390fd5b6108228282611455565b5050565b600080610831610f2a565b90506108528185856108438589610c98565b61084d9190612e11565b610f32565b600191505092915050565b61088e7f65d7a28e3265b37a6474929f336521b332c1681b933f6cb9f3376673440d862a610889610f2a565b610a92565b6108cd576040517f08c379a00000000000000000000000000000000000000000000000000000000081526004016108c490612bf4565b60405180910390fd5b6108d5611489565b565b6109087f9f2df0fed2c77648de5860a4cc508cd0818c85b8b8a1ab4ceeef8d981c8956a6610903610f2a565b610a92565b610947576040517f08c379a000000000000000000000000000000000000000000000000000000000815260040161093e90612c94565b60405180910390fd5b61095182826114ec565b5050565b610966610960610f2a565b8261164d565b50565b6000600760009054906101000a900460ff16905090565b6000600260008373ffffffffffffffffffffffffffffffffffffffff1673ffffffffffffffffffffffffffffffffffffffff168152602001908152602001600020549050919050565b6109db826109d5610f2a565b836110fd565b6109e5828261164d565b5050565b610a1a7f65d7a28e3265b37a6474929f336521b332c1681b933f6cb9f3376673440d862a610a15610f2a565b610a92565b610a59576040517f08c379a0000000000000000000000000000000000000000000000000000000008152600401610a5090612d14565b60405180910390fd5b610a61611826565b565b6000610a8a826001600086815260200190815260200160002061188990919063ffffffff16565b905092915050565b600080600084815260200190815260200160002060000160008373ffffffffffffffffffffffffffffffffffffffff1673ffffffffffffffffffffffffffffffffffffffff16815260200190815260200160002060009054906101000a900460ff16905092915050565b606060068054610b0b90612fdd565b80601f0160208091040260200160405190810160405280929190818152602001828054610b3790612fdd565b8015610b845780601f10610b5957610100808354040283529160200191610b84565b820191906000526020600020905b815481529060010190602001808311610b6757829003601f168201915b5050505050905090565b6000801b81565b600080610ba0610f2a565b90506000610bae8286610c98565b905083811015610bf3576040517f08c379a0000000000000000000000000000000000000000000000000000000008152600401610bea90612d34565b60405180910390fd5b610c008286868403610f32565b60019250505092915050565b600080610c17610f2a565b9050610c24818585611189565b600191505092915050565b6000610c4c600160008481526020019081526020016000206118a3565b9050919050565b7f9f2df0fed2c77648de5860a4cc508cd0818c85b8b8a1ab4ceeef8d981c8956a681565b610c8082610746565b610c898161140d565b610c938383611455565b505050565b6000600360008473ffffffffffffffffffffffffffffffffffffffff1673ffffffffffffffffffffffffffffffffffffffff16815260200190815260200160002060008373ffffffffffffffffffffffffffffffffffffffff1673ffffffffffffffffffffffffffffffffffffffff16815260200190815260200160002054905092915050565b7f65d7a28e3265b37a6474929f336521b332c1681b933f6cb9f3376673440d862a81565b610d4d8282610a92565b610e1f57600160008084815260200190815260200160002060000160008373ffffffffffffffffffffffffffffffffffffffff1673ffffffffffffffffffffffffffffffffffffffff16815260200190815260200160002060006101000a81548160ff021916908315150217905550610dc4610f2a565b73ffffffffffffffffffffffffffffffffffffffff168173ffffffffffffffffffffffffffffffffffffffff16837f2f8788117e7eff1d82e926ec794901d17c78024a50270940304540a733656f0d60405160405180910390a45b5050565b6000610e4b836000018373ffffffffffffffffffffffffffffffffffffffff1660001b6118b8565b905092915050565b610e5e838383610eab565b610e66610969565b15610ea6576040517f08c379a0000000000000000000000000000000000000000000000000000000008152600401610e9d90612d94565b60405180910390fd5b505050565b505050565b60007f7965db0b000000000000000000000000000000000000000000000000000000007bffffffffffffffffffffffffffffffffffffffffffffffffffffffff1916827bffffffffffffffffffffffffffffffffffffffffffffffffffffffff19161480610f235750610f2282611928565b5b9050919050565b600033905090565b600073ffffffffffffffffffffffffffffffffffffffff168373ffffffffffffffffffffffffffffffffffffffff161415610fa2576040517f08c379a0000000000000000000000000000000000000000000000000000000008152600401610f9990612cf4565b60405180910390fd5b600073ffffffffffffffffffffffffffffffffffffffff168273ffffffffffffffffffffffffffffffffffffffff161415611012576040517f08c379a000000000000000000000000000000000000000000000000000000000815260040161100990612c14565b60405180910390fd5b80600360008573ffffffffffffffffffffffffffffffffffffffff1673ffffffffffffffffffffffffffffffffffffffff16815260200190815260200160002060008473ffffffffffffffffffffffffffffffffffffffff1673ffffffffffffffffffffffffffffffffffffffff168152602001908152602001600020819055508173ffffffffffffffffffffffffffffffffffffffff168373ffffffffffffffffffffffffffffffffffffffff167f8c5be1e5ebec7d5bd14f71427d1e84f3dd0314c0f7b2291e5b200ac8c7c3b925836040516110f09190612db4565b60405180910390a3505050565b60006111098484610c98565b90507fffffffffffffffffffffffffffffffffffffffffffffffffffffffffffffffff81146111835781811015611175576040517f08c379a000000000000000000000000000000000000000000000000000000000815260040161116c90612c34565b60405180910390fd5b6111828484848403610f32565b5b50505050565b600073ffffffffffffffffffffffffffffffffffffffff168373ffffffffffffffffffffffffffffffffffffffff1614156111f9576040517f08c379a00000000000000000000000000000000000000000000000000000000081526004016111f090612cd4565b60405180910390fd5b600073ffffffffffffffffffffffffffffffffffffffff168273ffffffffffffffffffffffffffffffffffffffff161415611269576040517f08c379a000000000000000000000000000000000000000000000000000000000815260040161126090612b94565b60405180910390fd5b611274838383611992565b6000600260008573ffffffffffffffffffffffffffffffffffffffff1673ffffffffffffffffffffffffffffffffffffffff168152602001908152602001600020549050818110156112fb576040517f08c379a00000000000000000000000000000000000000000000000000000000081526004016112f290612c54565b60405180910390fd5b818103600260008673ffffffffffffffffffffffffffffffffffffffff1673ffffffffffffffffffffffffffffffffffffffff1681526020019081526020016000208190555081600260008573ffffffffffffffffffffffffffffffffffffffff1673ffffffffffffffffffffffffffffffffffffffff16815260200190815260200160002060008282546113909190612e11565b925050819055508273ffffffffffffffffffffffffffffffffffffffff168473ffffffffffffffffffffffffffffffffffffffff167fddf252ad1be2c89b69c2b068fc378daa952ba7f163c4a11628f55a4df523b3ef846040516113f49190612db4565b60405180910390a36114078484846119a2565b50505050565b61141e81611419610f2a565b6119a7565b50565b61142b8282610d43565b6114508160016000858152602001908152602001600020610e2390919063ffffffff16565b505050565b61145f8282611a44565b6114848160016000858152602001908152602001600020611b2590919063ffffffff16565b505050565b611491611b55565b6000600760006101000a81548160ff0219169083151502179055507f5db9ee0a495bf2e6ff9c91a7834c1ba4fdd244a5e8aa4e537bd38aeae4b073aa6114d5610f2a565b6040516114e29190612b01565b60405180910390a1565b600073ffffffffffffffffffffffffffffffffffffffff168273ffffffffffffffffffffffffffffffffffffffff16141561155c576040517f08c379a000000000000000000000000000000000000000000000000000000000815260040161155390612d74565b60405180910390fd5b61156860008383611992565b806004600082825461157a9190612e11565b9250508190555080600260008473ffffffffffffffffffffffffffffffffffffffff1673ffffffffffffffffffffffffffffffffffffffff16815260200190815260200160002060008282546115d09190612e11565b925050819055508173ffffffffffffffffffffffffffffffffffffffff16600073ffffffffffffffffffffffffffffffffffffffff167fddf252ad1be2c89b69c2b068fc378daa952ba7f163c4a11628f55a4df523b3ef836040516116359190612db4565b60405180910390a3611649600083836119a2565b5050565b600073ffffffffffffffffffffffffffffffffffffffff168273ffffffffffffffffffffffffffffffffffffffff1614156116bd576040517f08c379a00000000000000000000000000000000000000000000000000000000081526004016116b490612cb4565b60405180910390fd5b6116c982600083611992565b6000600260008473ffffffffffffffffffffffffffffffffffffffff1673ffffffffffffffffffffffffffffffffffffffff16815260200190815260200160002054905081811015611750576040517f08c379a000000000000000000000000000000000000000000000000000000000815260040161174790612bd4565b60405180910390fd5b818103600260008573ffffffffffffffffffffffffffffffffffffffff1673ffffffffffffffffffffffffffffffffffffffff1681526020019081526020016000208190555081600460008282546117a89190612ec1565b92505081905550600073ffffffffffffffffffffffffffffffffffffffff168373ffffffffffffffffffffffffffffffffffffffff167fddf252ad1be2c89b69c2b068fc378daa952ba7f163c4a11628f55a4df523b3ef8460405161180d9190612db4565b60405180910390a3611821836000846119a2565b505050565b61182e611b9e565b6001600760006101000a81548160ff0219169083151502179055507f62e78cea01bee320cd4e420270b5ea74000d11b0c9f74754ebdbfc544b05a258611872610f2a565b60405161187f9190612b01565b60405180910390a1565b60006118988360000183611be8565b60001c905092915050565b60006118b182600001611c39565b9050919050565b60006118c48383611c4a565b61191d578260000182908060018154018082558091505060019003906000526020600020016000909190919091505582600001805490508360010160008481526020019081526020016000208190555060019050611922565b600090505b92915050565b60007f01ffc9a7000000000000000000000000000000000000000000000000000000007bffffffffffffffffffffffffffffffffffffffffffffffffffffffff1916827bffffffffffffffffffffffffffffffffffffffffffffffffffffffff1916149050919050565b61199d838383610e53565b505050565b505050565b6119b18282610a92565b611a40576119d68173ffffffffffffffffffffffffffffffffffffffff166014611c6d565b6119e48360001c6020611c6d565b6040516020016119f5929190612ac7565b6040516020818303038152906040526040517f08c379a0000000000000000000000000000000000000000000000000000000008152600401611a379190612b52565b60405180910390fd5b5050565b611a4e8282610a92565b15611b2157600080600084815260200190815260200160002060000160008373ffffffffffffffffffffffffffffffffffffffff1673ffffffffffffffffffffffffffffffffffffffff16815260200190815260200160002060006101000a81548160ff021916908315150217905550611ac6610f2a565b73ffffffffffffffffffffffffffffffffffffffff168173ffffffffffffffffffffffffffffffffffffffff16837ff6391f5c32d9c69d2a47ea670b442974b53935d1edc7fd64eb21e047a839171b60405160405180910390a45b5050565b6000611b4d836000018373ffffffffffffffffffffffffffffffffffffffff1660001b611f67565b905092915050565b611b5d610969565b611b9c576040517f08c379a0000000000000000000000000000000000000000000000000000000008152600401611b9390612bb4565b60405180910390fd5b565b611ba6610969565b15611be6576040517f08c379a0000000000000000000000000000000000000000000000000000000008152600401611bdd90612c74565b60405180910390fd5b565b6000826000018281548110611c26577f4e487b7100000000000000000000000000000000000000000000000000000000600052603260045260246000fd5b9060005260206000200154905092915050565b600081600001805490509050919050565b600080836001016000848152602001908152602001600020541415905092915050565b606060006002836002611c809190612e67565b611c8a9190612e11565b67ffffffffffffffff811115611cc9577f4e487b7100000000000000000000000000000000000000000000000000000000600052604160045260246000fd5b6040519080825280601f01601f191660200182016040528015611cfb5781602001600182028036833780820191505090505b5090507f300000000000000000000000000000000000000000000000000000000000000081600081518110611d59577f4e487b7100000000000000000000000000000000000000000000000000000000600052603260045260246000fd5b60200101907effffffffffffffffffffffffffffffffffffffffffffffffffffffffffffff1916908160001a9053507f780000000000000000000000000000000000000000000000000000000000000081600181518110611de3577f4e487b7100000000000000000000000000000000000000000000000000000000600052603260045260246000fd5b60200101907effffffffffffffffffffffffffffffffffffffffffffffffffffffffffffff1916908160001a90535060006001846002611e239190612e67565b611e2d9190612e11565b90505b6001811115611f19577f3031323334353637383961626364656600000000000000000000000000000000600f861660108110611e95577f4e487b7100000000000000000000000000000000000000000000000000000000600052603260045260246000fd5b1a60f81b828281518110611ed2577f4e487b7100000000000000000000000000000000000000000000000000000000600052603260045260246000fd5b60200101907effffffffffffffffffffffffffffffffffffffffffffffffffffffffffffff1916908160001a905350600485901c945080611f1290612fb3565b9050611e30565b5060008414611f5d576040517f08c379a0000000000000000000000000000000000000000000000000000000008152600401611f5490612b74565b60405180910390fd5b8091505092915050565b600080836001016000848152602001908152602001600020549050600081146120e1576000600182611f999190612ec1565b9050600060018660000180549050611fb19190612ec1565b905081811461206c576000866000018281548110611ff8577f4e487b7100000000000000000000000000000000000000000000000000000000600052603260045260246000fd5b9060005260206000200154905080876000018481548110612042577f4e487b7100000000000000000000000000000000000000000000000000000000600052603260045260246000fd5b90600052602060002001819055508387600101600083815260200190815260200160002081905550505b856000018054806120a6577f4e487b7100000000000000000000000000000000000000000000000000000000600052603160045260246000fd5b6001900381819060005260206000200160009055905585600101600086815260200190815260200160002060009055600193505050506120e7565b60009150505b92915050565b6000813590506120fc8161307e565b92915050565b60008135905061211181613095565b92915050565b600081359050612126816130ac565b92915050565b60008135905061213b816130c3565b92915050565b60006020828403121561215357600080fd5b6000612161848285016120ed565b91505092915050565b6000806040838503121561217d57600080fd5b600061218b858286016120ed565b925050602061219c858286016120ed565b9150509250929050565b6000806000606084860312156121bb57600080fd5b60006121c9868287016120ed565b93505060206121da868287016120ed565b92505060406121eb8682870161212c565b9150509250925092565b6000806040838503121561220857600080fd5b6000612216858286016120ed565b92505060206122278582860161212c565b9150509250929050565b60006020828403121561224357600080fd5b600061225184828501612102565b91505092915050565b6000806040838503121561226d57600080fd5b600061227b85828601612102565b925050602061228c858286016120ed565b9150509250929050565b600080604083850312156122a957600080fd5b60006122b785828601612102565b92505060206122c88582860161212c565b9150509250929050565b6000602082840312156122e457600080fd5b60006122f284828501612117565b91505092915050565b60006020828403121561230d57600080fd5b600061231b8482850161212c565b91505092915050565b61232d81612ef5565b82525050565b61233c81612f07565b82525050565b61234b81612f13565b82525050565b600061235c82612dea565b6123668185612df5565b9350612376818560208601612f80565b61237f8161306d565b840191505092915050565b600061239582612dea565b61239f8185612e06565b93506123af818560208601612f80565b80840191505092915050565b60006123c8602083612df5565b91507f537472696e67733a20686578206c656e67746820696e73756666696369656e746000830152602082019050919050565b6000612408602383612df5565b91507f45524332303a207472616e7366657220746f20746865207a65726f206164647260008301527f65737300000000000000000000000000000000000000000000000000000000006020830152604082019050919050565b600061246e601483612df5565b91507f5061757361626c653a206e6f74207061757365640000000000000000000000006000830152602082019050919050565b60006124ae602283612df5565b91507f45524332303a206275726e20616d6f756e7420657863656564732062616c616e60008301527f63650000000000000000000000000000000000000000000000000000000000006020830152604082019050919050565b6000612514603983612df5565b91507f45524332305072657365744d696e7465725061757365723a206d75737420686160008301527f76652070617573657220726f6c6520746f20756e7061757365000000000000006020830152604082019050919050565b600061257a602283612df5565b91507f45524332303a20617070726f766520746f20746865207a65726f20616464726560008301527f73730000000000000000000000000000000000000000000000000000000000006020830152604082019050919050565b60006125e0601d83612df5565b91507f45524332303a20696e73756666696369656e7420616c6c6f77616e63650000006000830152602082019050919050565b6000612620602683612df5565b91507f45524332303a207472616e7366657220616d6f756e742065786365656473206260008301527f616c616e636500000000000000000000000000000000000000000000000000006020830152604082019050919050565b6000612686601083612df5565b91507f5061757361626c653a20706175736564000000000000000000000000000000006000830152602082019050919050565b60006126c6603683612df5565b91507f45524332305072657365744d696e7465725061757365723a206d75737420686160008301527f7665206d696e74657220726f6c6520746f206d696e74000000000000000000006020830152604082019050919050565b600061272c602183612df5565b91507f45524332303a206275726e2066726f6d20746865207a65726f2061646472657360008301527f73000000000000000000000000000000000000000000000000000000000000006020830152604082019050919050565b6000612792602583612df5565b91507f45524332303a207472616e736665722066726f6d20746865207a65726f20616460008301527f64726573730000000000000000000000000000000000000000000000000000006020830152604082019050919050565b60006127f8602483612df5565b91507f45524332303a20617070726f76652066726f6d20746865207a65726f2061646460008301527f72657373000000000000000000000000000000000000000000000000000000006020830152604082019050919050565b600061285e603783612df5565b91507f45524332305072657365744d696e7465725061757365723a206d75737420686160008301527f76652070617573657220726f6c6520746f2070617573650000000000000000006020830152604082019050919050565b60006128c4601783612e06565b91507f416363657373436f6e74726f6c3a206163636f756e74200000000000000000006000830152601782019050919050565b6000612904602583612df5565b91507f45524332303a2064656372656173656420616c6c6f77616e63652062656c6f7760008301527f207a65726f0000000000000000000000000000000000000000000000000000006020830152604082019050919050565b600061296a601183612e06565b91507f206973206d697373696e6720726f6c65200000000000000000000000000000006000830152601182019050919050565b60006129aa602f83612df5565b91507f416363657373436f6e74726f6c3a2063616e206f6e6c792072656e6f756e636560008301527f20726f6c657320666f722073656c6600000000000000000000000000000000006020830152604082019050919050565b6000612a10601f83612df5565b91507f45524332303a206d696e7420746f20746865207a65726f2061646472657373006000830152602082019050919050565b6000612a50602a83612df5565b91507f45524332305061757361626c653a20746f6b656e207472616e7366657220776860008301527f696c6520706175736564000000000000000000000000000000000000000000006020830152604082019050919050565b612ab281612f69565b82525050565b612ac181612f73565b82525050565b6000612ad2826128b7565b9150612ade828561238a565b9150612ae98261295d565b9150612af5828461238a565b91508190509392505050565b6000602082019050612b166000830184612324565b92915050565b6000602082019050612b316000830184612333565b92915050565b6000602082019050612b4c6000830184612342565b92915050565b60006020820190508181036000830152612b6c8184612351565b905092915050565b60006020820190508181036000830152612b8d816123bb565b9050919050565b60006020820190508181036000830152612bad816123fb565b9050919050565b60006020820190508181036000830152612bcd81612461565b9050919050565b60006020820190508181036000830152612bed816124a1565b9050919050565b60006020820190508181036000830152612c0d81612507565b9050919050565b60006020820190508181036000830152612c2d8161256d565b9050919050565b60006020820190508181036000830152612c4d816125d3565b9050919050565b60006020820190508181036000830152612c6d81612613565b9050919050565b60006020820190508181036000830152612c8d81612679565b9050919050565b60006020820190508181036000830152612cad816126b9565b9050919050565b60006020820190508181036000830152612ccd8161271f565b9050919050565b60006020820190508181036000830152612ced81612785565b9050919050565b60006020820190508181036000830152612d0d816127eb565b9050919050565b60006020820190508181036000830152612d2d81612851565b9050919050565b60006020820190508181036000830152612d4d816128f7565b9050919050565b60006020820190508181036000830152612d6d8161299d565b9050919050565b60006020820190508181036000830152612d8d81612a03565b9050919050565b60006020820190508181036000830152612dad81612a43565b9050919050565b6000602082019050612dc96000830184612aa9565b92915050565b6000602082019050612de46000830184612ab8565b92915050565b600081519050919050565b600082825260208201905092915050565b600081905092915050565b6000612e1c82612f69565b9150612e2783612f69565b9250827fffffffffffffffffffffffffffffffffffffffffffffffffffffffffffffffff03821115612e5c57612e5b61300f565b5b828201905092915050565b6000612e7282612f69565b9150612e7d83612f69565b9250817fffffffffffffffffffffffffffffffffffffffffffffffffffffffffffffffff0483118215151615612eb657612eb561300f565b5b828202905092915050565b6000612ecc82612f69565b9150612ed783612f69565b925082821015612eea57612ee961300f565b5b828203905092915050565b6000612f0082612f49565b9050919050565b60008115159050919050565b6000819050919050565b60007fffffffff0000000000000000000000000000000000000000000000000000000082169050919050565b600073ffffffffffffffffffffffffffffffffffffffff82169050919050565b6000819050919050565b600060ff82169050919050565b60005b83811015612f9e578082015181840152602081019050612f83565b83811115612fad576000848401525b50505050565b6000612fbe82612f69565b91506000821415612fd257612fd161300f565b5b600182039050919050565b60006002820490506001821680612ff557607f821691505b602082108114156130095761300861303e565b5b50919050565b7f4e487b7100000000000000000000000000000000000000000000000000000000600052601160045260246000fd5b7f4e487b7100000000000000000000000000000000000000000000000000000000600052602260045260246000fd5b6000601f19601f8301169050919050565b61308781612ef5565b811461309257600080fd5b50565b61309e81612f13565b81146130a957600080fd5b50565b6130b581612f1d565b81146130c057600080fd5b50565b6130cc81612f69565b81146130d757600080fd5b5056fea2646970667358221220b988d52de3ea9a3a23a603fd3ef78d6a9d6d32df43c9fd91c17b12b5dd300efb64736f6c63430008000033",
  "linkReferences": {},
  "deployedLinkReferences": {}
}