{
  "_format": "hh-sol-artifact-1",
  "contractName": "AccountLevelsTest",
  "sourceName": "contracts/EtherDelta.sol",
  "abi": [
    {
      "inputs": [
        {
          "internalType": "address",
          "name": "user",
          "type": "address"
        }
      ],
      "name": "accountLevel",
      "outputs": [
        {
          "internalType": "uint256",
          "name": "",
          "type": "uint256"
        }
      ],
      "stateMutability": "view",
      "type": "function"
    },
    {
      "inputs": [
        {
          "internalType": "address",
          "name": "",
          "type": "address"
        }
      ],
      "name": "accountLevels",
      "outputs": [
        {
          "internalType": "uint256",
          "name": "",
          "type": "uint256"
        }
      ],
      "stateMutability": "view",
      "type": "function"
    },
    {
      "inputs": [
        {
          "internalType": "address",
          "name": "user",
          "type": "address"
        },
        {
          "internalType": "uint256",
          "name": "level",
          "type": "uint256"
        }
      ],
      "name": "setAccountLevel",
      "outputs": [],
      "stateMutability": "nonpayable",
      "type": "function"
    }
  ],
  "bytecode": "0x608060405234801561001057600080fd5b506102c2806100206000396000f3fe608060405234801561001057600080fd5b50600436106100415760003560e01c806314577c55146100465780631cbd0519146100765780638abadb6b146100a6575b600080fd5b610060600480360381019061005b9190610193565b6100c2565b60405161006d9190610207565b60405180910390f35b610090600480360381019061008b9190610193565b6100da565b60405161009d9190610207565b60405180910390f35b6100c060048036038101906100bb91906101bc565b610122565b005b60006020528060005260406000206000915090505481565b60008060008373ffffffffffffffffffffffffffffffffffffffff1673ffffffffffffffffffffffffffffffffffffffff168152602001908152602001600020549050919050565b806000808473ffffffffffffffffffffffffffffffffffffffff1673ffffffffffffffffffffffffffffffffffffffff168152602001908152602001600020819055505050565b6000813590506101788161025e565b92915050565b60008135905061018d81610275565b92915050565b6000602082840312156101a557600080fd5b60006101b384828501610169565b91505092915050565b600080604083850312156101cf57600080fd5b60006101dd85828601610169565b92505060206101ee8582860161017e565b9150509250929050565b61020181610254565b82525050565b600060208201905061021c60008301846101f8565b92915050565b600061022d82610234565b9050919050565b600073ffffffffffffffffffffffffffffffffffffffff82169050919050565b6000819050919050565b61026781610222565b811461027257600080fd5b50565b61027e81610254565b811461028957600080fd5b5056fea26469706673582212203b40ea12668a367086f0e9ffecf8a482156695c8ed7ddb99e618a01c24ca520864736f6c63430008040033",
  "linkReferences": {},
  "deployedLinkReferences": {}
}