{
  "_format": "hh-sol-artifact-1",
  "contractName": "EtherDelta",
  "sourceName": "contracts/EtherDelta.sol",
  "abi": [
    {
      "inputs": [
        {
          "internalType": "address",
          "name": "admin_",
          "type": "address"
        },
        {
          "internalType": "address",
          "name": "feeAccount_",
          "type": "address"
        },
        {
          "internalType": "address",
          "name": "accountLevelsAddr_",
          "type": "address"
        },
        {
          "internalType": "uint256",
          "name": "feeMake_",
          "type": "uint256"
        },
        {
          "internalType": "uint256",
          "name": "feeTake_",
          "type": "uint256"
        },
        {
          "internalType": "uint256",
          "name": "feeRebate_",
          "type": "uint256"
        }
      ],
      "stateMutability": "nonpayable",
      "type": "constructor"
    },
    {
      "anonymous": false,
      "inputs": [
        {
          "indexed": false,
          "internalType": "address",
          "name": "tokenGet",
          "type": "address"
        },
        {
          "indexed": false,
          "internalType": "uint256",
          "name": "amountGet",
          "type": "uint256"
        },
        {
          "indexed": false,
          "internalType": "address",
          "name": "tokenGive",
          "type": "address"
        },
        {
          "indexed": false,
          "internalType": "uint256",
          "name": "amountGive",
          "type": "uint256"
        },
        {
          "indexed": false,
          "internalType": "uint256",
          "name": "expires",
          "type": "uint256"
        },
        {
          "indexed": false,
          "internalType": "uint256",
          "name": "nonce",
          "type": "uint256"
        },
        {
          "indexed": false,
          "internalType": "address",
          "name": "user",
          "type": "address"
        },
        {
          "indexed": false,
          "internalType": "uint8",
          "name": "v",
          "type": "uint8"
        },
        {
          "indexed": false,
          "internalType": "bytes32",
          "name": "r",
          "type": "bytes32"
        },
        {
          "indexed": false,
          "internalType": "bytes32",
          "name": "s",
          "type": "bytes32"
        }
      ],
      "name": "Cancel",
      "type": "event"
    },
    {
      "anonymous": false,
      "inputs": [
        {
          "indexed": false,
          "internalType": "address",
          "name": "token",
          "type": "address"
        },
        {
          "indexed": false,
          "internalType": "address",
          "name": "user",
          "type": "address"
        },
        {
          "indexed": false,
          "internalType": "uint256",
          "name": "amount",
          "type": "uint256"
        },
        {
          "indexed": false,
          "internalType": "uint256",
          "name": "balance",
          "type": "uint256"
        }
      ],
      "name": "Deposit",
      "type": "event"
    },
    {
      "anonymous": false,
      "inputs": [
        {
          "indexed": false,
          "internalType": "address",
          "name": "tokenGet",
          "type": "address"
        },
        {
          "indexed": false,
          "internalType": "uint256",
          "name": "amountGet",
          "type": "uint256"
        },
        {
          "indexed": false,
          "internalType": "address",
          "name": "tokenGive",
          "type": "address"
        },
        {
          "indexed": false,
          "internalType": "uint256",
          "name": "amountGive",
          "type": "uint256"
        },
        {
          "indexed": false,
          "internalType": "uint256",
          "name": "expires",
          "type": "uint256"
        },
        {
          "indexed": false,
          "internalType": "uint256",
          "name": "nonce",
          "type": "uint256"
        },
        {
          "indexed": false,
          "internalType": "address",
          "name": "user",
          "type": "address"
        }
      ],
      "name": "Order",
      "type": "event"
    },
    {
      "anonymous": false,
      "inputs": [
        {
          "indexed": false,
          "internalType": "address",
          "name": "tokenGet",
          "type": "address"
        },
        {
          "indexed": false,
          "internalType": "uint256",
          "name": "amountGet",
          "type": "uint256"
        },
        {
          "indexed": false,
          "internalType": "address",
          "name": "tokenGive",
          "type": "address"
        },
        {
          "indexed": false,
          "internalType": "uint256",
          "name": "amountGive",
          "type": "uint256"
        },
        {
          "indexed": false,
          "internalType": "address",
          "name": "get",
          "type": "address"
        },
        {
          "indexed": false,
          "internalType": "address",
          "name": "give",
          "type": "address"
        }
      ],
      "name": "Trade",
      "type": "event"
    },
    {
      "anonymous": false,
      "inputs": [
        {
          "indexed": false,
          "internalType": "address",
          "name": "token",
          "type": "address"
        },
        {
          "indexed": false,
          "internalType": "address",
          "name": "user",
          "type": "address"
        },
        {
          "indexed": false,
          "internalType": "uint256",
          "name": "amount",
          "type": "uint256"
        },
        {
          "indexed": false,
          "internalType": "uint256",
          "name": "balance",
          "type": "uint256"
        }
      ],
      "name": "Withdraw",
      "type": "event"
    },
    {
      "inputs": [],
      "name": "accountLevelsAddr",
      "outputs": [
        {
          "internalType": "address",
          "name": "",
          "type": "address"
        }
      ],
      "stateMutability": "view",
      "type": "function"
    },
    {
      "inputs": [],
      "name": "admin",
      "outputs": [
        {
          "internalType": "address",
          "name": "",
          "type": "address"
        }
      ],
      "stateMutability": "view",
      "type": "function"
    },
    {
      "inputs": [
        {
          "components": [
            {
              "internalType": "address",
              "name": "tokenGet",
              "type": "address"
            },
            {
              "internalType": "uint256",
              "name": "amountGet",
              "type": "uint256"
            },
            {
              "internalType": "address",
              "name": "tokenGive",
              "type": "address"
            },
            {
              "internalType": "uint256",
              "name": "amountGive",
              "type": "uint256"
            },
            {
              "internalType": "uint256",
              "name": "expires",
              "type": "uint256"
            },
            {
              "internalType": "uint256",
              "name": "nonce",
              "type": "uint256"
            },
            {
              "internalType": "address",
              "name": "user",
              "type": "address"
            },
            {
              "internalType": "uint8",
              "name": "v",
              "type": "uint8"
            },
            {
              "internalType": "bytes32",
              "name": "r",
              "type": "bytes32"
            },
            {
              "internalType": "bytes32",
              "name": "s",
              "type": "bytes32"
            }
          ],
          "internalType": "struct EtherDelta.OrderSigned",
          "name": "orderSigned",
          "type": "tuple"
        }
      ],
      "name": "amountFilled",
      "outputs": [
        {
          "internalType": "uint256",
          "name": "",
          "type": "uint256"
        }
      ],
      "stateMutability": "view",
      "type": "function"
    },
    {
      "inputs": [
        {
          "components": [
            {
              "internalType": "address",
              "name": "tokenGet",
              "type": "address"
            },
            {
              "internalType": "uint256",
              "name": "amountGet",
              "type": "uint256"
            },
            {
              "internalType": "address",
              "name": "tokenGive",
              "type": "address"
            },
            {
              "internalType": "uint256",
              "name": "amountGive",
              "type": "uint256"
            },
            {
              "internalType": "uint256",
              "name": "expires",
              "type": "uint256"
            },
            {
              "internalType": "uint256",
              "name": "nonce",
              "type": "uint256"
            },
            {
              "internalType": "address",
              "name": "user",
              "type": "address"
            },
            {
              "internalType": "uint8",
              "name": "v",
              "type": "uint8"
            },
            {
              "internalType": "bytes32",
              "name": "r",
              "type": "bytes32"
            },
            {
              "internalType": "bytes32",
              "name": "s",
              "type": "bytes32"
            }
          ],
          "internalType": "struct EtherDelta.OrderSigned",
          "name": "orderSigned",
          "type": "tuple"
        }
      ],
      "name": "availableVolume",
      "outputs": [
        {
          "internalType": "uint256",
          "name": "",
          "type": "uint256"
        }
      ],
      "stateMutability": "view",
      "type": "function"
    },
    {
      "inputs": [
        {
          "internalType": "address",
          "name": "token",
          "type": "address"
        },
        {
          "internalType": "address",
          "name": "user",
          "type": "address"
        }
      ],
      "name": "balanceOf",
      "outputs": [
        {
          "internalType": "uint256",
          "name": "",
          "type": "uint256"
        }
      ],
      "stateMutability": "view",
      "type": "function"
    },
    {
      "inputs": [
        {
          "components": [
            {
              "internalType": "address",
              "name": "tokenGet",
              "type": "address"
            },
            {
              "internalType": "uint256",
              "name": "amountGet",
              "type": "uint256"
            },
            {
              "internalType": "address",
              "name": "tokenGive",
              "type": "address"
            },
            {
              "internalType": "uint256",
              "name": "amountGive",
              "type": "uint256"
            },
            {
              "internalType": "uint256",
              "name": "expires",
              "type": "uint256"
            },
            {
              "internalType": "uint256",
              "name": "nonce",
              "type": "uint256"
            },
            {
              "internalType": "address",
              "name": "user",
              "type": "address"
            },
            {
              "internalType": "uint8",
              "name": "v",
              "type": "uint8"
            },
            {
              "internalType": "bytes32",
              "name": "r",
              "type": "bytes32"
            },
            {
              "internalType": "bytes32",
              "name": "s",
              "type": "bytes32"
            }
          ],
          "internalType": "struct EtherDelta.OrderSigned",
          "name": "orderSigned",
          "type": "tuple"
        }
      ],
      "name": "cancelOrder",
      "outputs": [],
      "stateMutability": "nonpayable",
      "type": "function"
    },
    {
      "inputs": [
        {
          "internalType": "address",
          "name": "accountLevelsAddr_",
          "type": "address"
        }
      ],
      "name": "changeAccountLevelsAddr",
      "outputs": [],
      "stateMutability": "nonpayable",
      "type": "function"
    },
    {
      "inputs": [
        {
          "internalType": "address",
          "name": "admin_",
          "type": "address"
        }
      ],
      "name": "changeAdmin",
      "outputs": [],
      "stateMutability": "nonpayable",
      "type": "function"
    },
    {
      "inputs": [
        {
          "internalType": "address",
          "name": "feeAccount_",
          "type": "address"
        }
      ],
      "name": "changeFeeAccount",
      "outputs": [],
      "stateMutability": "nonpayable",
      "type": "function"
    },
    {
      "inputs": [
        {
          "internalType": "uint256",
          "name": "feeMake_",
          "type": "uint256"
        }
      ],
      "name": "changeFeeMake",
      "outputs": [],
      "stateMutability": "nonpayable",
      "type": "function"
    },
    {
      "inputs": [
        {
          "internalType": "uint256",
          "name": "feeRebate_",
          "type": "uint256"
        }
      ],
      "name": "changeFeeRebate",
      "outputs": [],
      "stateMutability": "nonpayable",
      "type": "function"
    },
    {
      "inputs": [
        {
          "internalType": "uint256",
          "name": "feeTake_",
          "type": "uint256"
        }
      ],
      "name": "changeFeeTake",
      "outputs": [],
      "stateMutability": "nonpayable",
      "type": "function"
    },
    {
      "inputs": [],
      "name": "deposit",
      "outputs": [],
      "stateMutability": "payable",
      "type": "function"
    },
    {
      "inputs": [
        {
          "internalType": "address",
          "name": "token",
          "type": "address"
        },
        {
          "internalType": "uint256",
          "name": "amount",
          "type": "uint256"
        }
      ],
      "name": "depositToken",
      "outputs": [],
      "stateMutability": "nonpayable",
      "type": "function"
    },
    {
      "inputs": [],
      "name": "feeAccount",
      "outputs": [
        {
          "internalType": "address",
          "name": "",
          "type": "address"
        }
      ],
      "stateMutability": "view",
      "type": "function"
    },
    {
      "inputs": [],
      "name": "feeMake",
      "outputs": [
        {
          "internalType": "uint256",
          "name": "",
          "type": "uint256"
        }
      ],
      "stateMutability": "view",
      "type": "function"
    },
    {
      "inputs": [],
      "name": "feeRebate",
      "outputs": [
        {
          "internalType": "uint256",
          "name": "",
          "type": "uint256"
        }
      ],
      "stateMutability": "view",
      "type": "function"
    },
    {
      "inputs": [],
      "name": "feeTake",
      "outputs": [
        {
          "internalType": "uint256",
          "name": "",
          "type": "uint256"
        }
      ],
      "stateMutability": "view",
      "type": "function"
    },
    {
      "inputs": [
        {
          "internalType": "address",
          "name": "tokenGet",
          "type": "address"
        },
        {
          "internalType": "uint256",
          "name": "amountGet",
          "type": "uint256"
        },
        {
          "internalType": "address",
          "name": "tokenGive",
          "type": "address"
        },
        {
          "internalType": "uint256",
          "name": "amountGive",
          "type": "uint256"
        },
        {
          "internalType": "uint256",
          "name": "expires",
          "type": "uint256"
        },
        {
          "internalType": "uint256",
          "name": "nonce",
          "type": "uint256"
        }
      ],
      "name": "order",
      "outputs": [],
      "stateMutability": "nonpayable",
      "type": "function"
    },
    {
      "inputs": [
        {
          "internalType": "address",
          "name": "",
          "type": "address"
        },
        {
          "internalType": "bytes32",
          "name": "",
          "type": "bytes32"
        }
      ],
      "name": "orderFills",
      "outputs": [
        {
          "internalType": "uint256",
          "name": "",
          "type": "uint256"
        }
      ],
      "stateMutability": "view",
      "type": "function"
    },
    {
      "inputs": [
        {
          "internalType": "address",
          "name": "",
          "type": "address"
        },
        {
          "internalType": "bytes32",
          "name": "",
          "type": "bytes32"
        }
      ],
      "name": "orders",
      "outputs": [
        {
          "internalType": "bool",
          "name": "",
          "type": "bool"
        }
      ],
      "stateMutability": "view",
      "type": "function"
    },
    {
      "inputs": [
        {
          "internalType": "address",
          "name": "",
          "type": "address"
        },
        {
          "internalType": "address",
          "name": "",
          "type": "address"
        }
      ],
      "name": "tokens",
      "outputs": [
        {
          "internalType": "uint256",
          "name": "",
          "type": "uint256"
        }
      ],
      "stateMutability": "view",
      "type": "function"
    },
    {
      "inputs": [
        {
          "components": [
            {
              "internalType": "address",
              "name": "tokenGet",
              "type": "address"
            },
            {
              "internalType": "uint256",
              "name": "amountGet",
              "type": "uint256"
            },
            {
              "internalType": "address",
              "name": "tokenGive",
              "type": "address"
            },
            {
              "internalType": "uint256",
              "name": "amountGive",
              "type": "uint256"
            },
            {
              "internalType": "uint256",
              "name": "expires",
              "type": "uint256"
            },
            {
              "internalType": "uint256",
              "name": "nonce",
              "type": "uint256"
            },
            {
              "internalType": "address",
              "name": "user",
              "type": "address"
            },
            {
              "internalType": "uint8",
              "name": "v",
              "type": "uint8"
            },
            {
              "internalType": "bytes32",
              "name": "r",
              "type": "bytes32"
            },
            {
              "internalType": "bytes32",
              "name": "s",
              "type": "bytes32"
            }
          ],
          "internalType": "struct EtherDelta.OrderSigned",
          "name": "orderSigned",
          "type": "tuple"
        },
        {
          "internalType": "uint256",
          "name": "amount",
          "type": "uint256"
        }
      ],
      "name": "trade",
      "outputs": [],
      "stateMutability": "nonpayable",
      "type": "function"
    },
    {
      "inputs": [
        {
          "internalType": "uint256",
          "name": "amount",
          "type": "uint256"
        }
      ],
      "name": "withdraw",
      "outputs": [],
      "stateMutability": "nonpayable",
      "type": "function"
    },
    {
      "inputs": [
        {
          "internalType": "address",
          "name": "token",
          "type": "address"
        },
        {
          "internalType": "uint256",
          "name": "amount",
          "type": "uint256"
        }
      ],
      "name": "withdrawToken",
      "outputs": [],
      "stateMutability": "nonpayable",
      "type": "function"
    }
  ],
  "bytecode": "0x60806040523480156200001157600080fd5b50604051620037aa380380620037aa833981810160405281019062000037919062000148565b856000806101000a81548173ffffffffffffffffffffffffffffffffffffffff021916908373ffffffffffffffffffffffffffffffffffffffff16021790555084600160006101000a81548173ffffffffffffffffffffffffffffffffffffffff021916908373ffffffffffffffffffffffffffffffffffffffff16021790555083600260006101000a81548173ffffffffffffffffffffffffffffffffffffffff021916908373ffffffffffffffffffffffffffffffffffffffff16021790555082600381905550816004819055508060058190555050505050505062000250565b6000815190506200012b816200021c565b92915050565b600081519050620001428162000236565b92915050565b60008060008060008060c087890312156200016257600080fd5b60006200017289828a016200011a565b96505060206200018589828a016200011a565b95505060406200019889828a016200011a565b9450506060620001ab89828a0162000131565b9350506080620001be89828a0162000131565b92505060a0620001d189828a0162000131565b9150509295509295509295565b6000620001eb82620001f2565b9050919050565b600073ffffffffffffffffffffffffffffffffffffffff82169050919050565b6000819050919050565b6200022781620001de565b81146200023357600080fd5b50565b620002418162000212565b81146200024d57600080fd5b50565b61354a80620002606000396000f3fe6080604052600436106101665760003560e01c8063731c2f81116100d1578063c281309e1161008a578063f341294211610064578063f341294214610515578063f65f159214610540578063f7888aec14610569578063f851a440146105a657610166565b8063c281309e146104b7578063d0e30db0146104e2578063e8f6bc2e146104ec57610166565b8063731c2f811461039757806378f876fa146103c25780638823a9c0146103ff5780638f283970146104285780639e281a9814610451578063bb5f46291461047a57610166565b8063508493bc11610123578063508493bc1461028957806354d03b5c146102c657806357786394146102ef5780635e1d7ae41461031a57806365e17c9d1461034357806371ffcb161461036e57610166565b80630b9276661461016b57806319774d431461019457806324762cdc146101d15780632e1a7d4d146101fa578063338b5dea14610223578063386390e41461024c575b600080fd5b34801561017757600080fd5b50610192600480360381019061018d9190612a4c565b6105d1565b005b3480156101a057600080fd5b506101bb60048036038101906101b691906129d4565b6106bd565b6040516101c891906130e2565b60405180910390f35b3480156101dd57600080fd5b506101f860048036038101906101f39190612b28565b6106e2565b005b34801561020657600080fd5b50610221600480360381019061021c9190612b66565b610a53565b005b34801561022f57600080fd5b5061024a60048036038101906102459190612a10565b610d4c565b005b34801561025857600080fd5b50610273600480360381019061026e9190612afe565b611017565b60405161028091906130e2565b60405180910390f35b34801561029557600080fd5b506102b060048036038101906102ab9190612998565b6110c4565b6040516102bd91906130e2565b60405180910390f35b3480156102d257600080fd5b506102ed60048036038101906102e89190612b66565b6110e9565b005b3480156102fb57600080fd5b50610304611190565b60405161031191906130e2565b60405180910390f35b34801561032657600080fd5b50610341600480360381019061033c9190612b66565b611196565b005b34801561034f57600080fd5b5061035861124b565b6040516103659190612dd6565b60405180910390f35b34801561037a57600080fd5b506103956004803603810190610390919061296f565b611271565b005b3480156103a357600080fd5b506103ac611343565b6040516103b991906130e2565b60405180910390f35b3480156103ce57600080fd5b506103e960048036038101906103e49190612afe565b611349565b6040516103f691906130e2565b60405180910390f35b34801561040b57600080fd5b5061042660048036038101906104219190612b66565b6115ff565b005b34801561043457600080fd5b5061044f600480360381019061044a919061296f565b6116b4565b005b34801561045d57600080fd5b5061047860048036038101906104739190612a10565b611785565b005b34801561048657600080fd5b506104a1600480360381019061049c91906129d4565b611aa1565b6040516104ae9190613002565b60405180910390f35b3480156104c357600080fd5b506104cc611ad0565b6040516104d991906130e2565b60405180910390f35b6104ea611ad6565b005b3480156104f857600080fd5b50610513600480360381019061050e919061296f565b611c98565b005b34801561052157600080fd5b5061052a611d6a565b6040516105379190612dd6565b60405180910390f35b34801561054c57600080fd5b5061056760048036038101906105629190612afe565b611d90565b005b34801561057557600080fd5b50610590600480360381019061058b9190612998565b611fca565b60405161059d91906130e2565b60405180910390f35b3480156105b257600080fd5b506105bb612051565b6040516105c89190612dd6565b60405180910390f35b6000308787878787876040516020016105f09796959493929190612d1a565b6040516020818303038152906040528051906020012090506001600760003373ffffffffffffffffffffffffffffffffffffffff1673ffffffffffffffffffffffffffffffffffffffff168152602001908152602001600020600083815260200190815260200160002060006101000a81548160ff0219169083151502179055507f3f7f2eda73683c21a15f9435af1028c93185b5f1fa38270762dc32be606b3e85878787878787336040516106ac9796959493929190612ef7565b60405180910390a150505050505050565b6008602052816000526040600020602052806000526040600020600091509150505481565b600030836000015184602001518560400151866060015187608001518860a001516040516020016107199796959493929190612d1a565b604051602081830303815290604052805190602001209050600760008460c0015173ffffffffffffffffffffffffffffffffffffffff1673ffffffffffffffffffffffffffffffffffffffff168152602001908152602001600020600082815260200190815260200160002060009054906101000a900460ff168061084f57508260c0015173ffffffffffffffffffffffffffffffffffffffff166001826040516020016107c79190612d9b565b604051602081830303815290604052805190602001208560e001518661010001518761012001516040516000815260200160405260405161080b949392919061301d565b6020604051602081039080840390855afa15801561082d573d6000803e3d6000fd5b5050506020604051035173ffffffffffffffffffffffffffffffffffffffff16145b801561085f575082608001514311155b80156108cc575082602001516108c9600860008660c0015173ffffffffffffffffffffffffffffffffffffffff1673ffffffffffffffffffffffffffffffffffffffff16815260200190815260200160002060008481526020019081526020016000205484612075565b11155b61090b576040517f08c379a0000000000000000000000000000000000000000000000000000000008152600401610902906130a2565b60405180910390fd5b61092d83600001518460200151856040015186606001518760c001518761208b565b61098b600860008560c0015173ffffffffffffffffffffffffffffffffffffffff1673ffffffffffffffffffffffffffffffffffffffff16815260200190815260200160002060008381526020019081526020016000205483612075565b600860008560c0015173ffffffffffffffffffffffffffffffffffffffff1673ffffffffffffffffffffffffffffffffffffffff1681526020019081526020016000206000838152602001908152602001600020819055507f6effdda786735d5033bfad5f53e5131abcced9e52be6c507b62d639685fbed6d83600001518385604001518660200151868860600151610a2491906131d0565b610a2e919061319f565b8760c0015133604051610a4696959493929190612e96565b60405180910390a1505050565b80600660008073ffffffffffffffffffffffffffffffffffffffff1673ffffffffffffffffffffffffffffffffffffffff16815260200190815260200160002060003373ffffffffffffffffffffffffffffffffffffffff1673ffffffffffffffffffffffffffffffffffffffff168152602001908152602001600020541015610adc57600080fd5b610b62600660008073ffffffffffffffffffffffffffffffffffffffff1673ffffffffffffffffffffffffffffffffffffffff16815260200190815260200160002060003373ffffffffffffffffffffffffffffffffffffffff1673ffffffffffffffffffffffffffffffffffffffff16815260200190815260200160002054826127d3565b600660008073ffffffffffffffffffffffffffffffffffffffff1673ffffffffffffffffffffffffffffffffffffffff16815260200190815260200160002060003373ffffffffffffffffffffffffffffffffffffffff1673ffffffffffffffffffffffffffffffffffffffff1681526020019081526020016000208190555060003373ffffffffffffffffffffffffffffffffffffffff1682604051610c0890612dc1565b60006040518083038185875af1925050503d8060008114610c45576040519150601f19603f3d011682016040523d82523d6000602084013e610c4a565b606091505b5050905080610c8e576040517f08c379a0000000000000000000000000000000000000000000000000000000008152600401610c8590613082565b60405180910390fd5b7ff341246adaac6f497bc2a656f546ab9e182111d630394f0c57c710a59a2cb56760003384600660008073ffffffffffffffffffffffffffffffffffffffff1673ffffffffffffffffffffffffffffffffffffffff16815260200190815260200160002060003373ffffffffffffffffffffffffffffffffffffffff1673ffffffffffffffffffffffffffffffffffffffff16815260200190815260200160002054604051610d409493929190612e28565b60405180910390a15050565b600073ffffffffffffffffffffffffffffffffffffffff168273ffffffffffffffffffffffffffffffffffffffff161415610d8657600080fd5b8173ffffffffffffffffffffffffffffffffffffffff166323b872dd3330846040518463ffffffff1660e01b8152600401610dc393929190612df1565b602060405180830381600087803b158015610ddd57600080fd5b505af1158015610df1573d6000803e3d6000fd5b505050506040513d601f19601f82011682018060405250810190610e159190612ad5565b610e54576040517f08c379a0000000000000000000000000000000000000000000000000000000008152600401610e4b90613062565b60405180910390fd5b610eda600660008473ffffffffffffffffffffffffffffffffffffffff1673ffffffffffffffffffffffffffffffffffffffff16815260200190815260200160002060003373ffffffffffffffffffffffffffffffffffffffff1673ffffffffffffffffffffffffffffffffffffffff1681526020019081526020016000205482612075565b600660008473ffffffffffffffffffffffffffffffffffffffff1673ffffffffffffffffffffffffffffffffffffffff16815260200190815260200160002060003373ffffffffffffffffffffffffffffffffffffffff1673ffffffffffffffffffffffffffffffffffffffff168152602001908152602001600020819055507fdcbc1c05240f31ff3ad067ef1ee35ce4997762752e3a095284754544f4c709d7823383600660008773ffffffffffffffffffffffffffffffffffffffff1673ffffffffffffffffffffffffffffffffffffffff16815260200190815260200160002060003373ffffffffffffffffffffffffffffffffffffffff1673ffffffffffffffffffffffffffffffffffffffff1681526020019081526020016000205460405161100b9493929190612e28565b60405180910390a15050565b60008030836000015184602001518560400151866060015187608001518860a0015160405160200161104f9796959493929190612d1a565b604051602081830303815290604052805190602001209050600860008460c0015173ffffffffffffffffffffffffffffffffffffffff1673ffffffffffffffffffffffffffffffffffffffff168152602001908152602001600020600082815260200190815260200160002054915050919050565b6006602052816000526040600020602052806000526040600020600091509150505481565b60008054906101000a900473ffffffffffffffffffffffffffffffffffffffff1673ffffffffffffffffffffffffffffffffffffffff163373ffffffffffffffffffffffffffffffffffffffff1614611177576040517f08c379a000000000000000000000000000000000000000000000000000000000815260040161116e906130c2565b60405180910390fd5b60035481111561118657600080fd5b8060038190555050565b60035481565b60008054906101000a900473ffffffffffffffffffffffffffffffffffffffff1673ffffffffffffffffffffffffffffffffffffffff163373ffffffffffffffffffffffffffffffffffffffff1614611224576040517f08c379a000000000000000000000000000000000000000000000000000000000815260040161121b906130c2565b60405180910390fd5b600554811015801561123857506004548111155b61124157600080fd5b8060058190555050565b600160009054906101000a900473ffffffffffffffffffffffffffffffffffffffff1681565b60008054906101000a900473ffffffffffffffffffffffffffffffffffffffff1673ffffffffffffffffffffffffffffffffffffffff163373ffffffffffffffffffffffffffffffffffffffff16146112ff576040517f08c379a00000000000000000000000000000000000000000000000000000000081526004016112f6906130c2565b60405180910390fd5b80600160006101000a81548173ffffffffffffffffffffffffffffffffffffffff021916908373ffffffffffffffffffffffffffffffffffffffff16021790555050565b60055481565b60008030836000015184602001518560400151866060015187608001518860a001516040516020016113819796959493929190612d1a565b604051602081830303815290604052805190602001209050600760008460c0015173ffffffffffffffffffffffffffffffffffffffff1673ffffffffffffffffffffffffffffffffffffffff168152602001908152602001600020600082815260200190815260200160002060009054906101000a900460ff16806114b757508260c0015173ffffffffffffffffffffffffffffffffffffffff1660018260405160200161142f9190612d9b565b604051602081830303815290604052805190602001208560e0015186610100015187610120015160405160008152602001604052604051611473949392919061301d565b6020604051602081039080840390855afa158015611495573d6000803e3d6000fd5b5050506020604051035173ffffffffffffffffffffffffffffffffffffffff16145b80156114c7575082608001514311155b6114d55760009150506115fa565b60006115398460200151600860008760c0015173ffffffffffffffffffffffffffffffffffffffff1673ffffffffffffffffffffffffffffffffffffffff1681526020019081526020016000206000858152602001908152602001600020546127d3565b9050600084606001516115d460066000886040015173ffffffffffffffffffffffffffffffffffffffff1673ffffffffffffffffffffffffffffffffffffffff16815260200190815260200160002060008860c0015173ffffffffffffffffffffffffffffffffffffffff1673ffffffffffffffffffffffffffffffffffffffff1681526020019081526020016000205487602001516127e9565b6115de919061319f565b9050808210156115f3578193505050506115fa565b8093505050505b919050565b60008054906101000a900473ffffffffffffffffffffffffffffffffffffffff1673ffffffffffffffffffffffffffffffffffffffff163373ffffffffffffffffffffffffffffffffffffffff161461168d576040517f08c379a0000000000000000000000000000000000000000000000000000000008152600401611684906130c2565b60405180910390fd5b60045481111580156116a157506005548110155b6116aa57600080fd5b8060048190555050565b60008054906101000a900473ffffffffffffffffffffffffffffffffffffffff1673ffffffffffffffffffffffffffffffffffffffff163373ffffffffffffffffffffffffffffffffffffffff1614611742576040517f08c379a0000000000000000000000000000000000000000000000000000000008152600401611739906130c2565b60405180910390fd5b806000806101000a81548173ffffffffffffffffffffffffffffffffffffffff021916908373ffffffffffffffffffffffffffffffffffffffff16021790555050565b600073ffffffffffffffffffffffffffffffffffffffff168273ffffffffffffffffffffffffffffffffffffffff1614156117bf57600080fd5b80600660008473ffffffffffffffffffffffffffffffffffffffff1673ffffffffffffffffffffffffffffffffffffffff16815260200190815260200160002060003373ffffffffffffffffffffffffffffffffffffffff1673ffffffffffffffffffffffffffffffffffffffff16815260200190815260200160002054101561184857600080fd5b6118ce600660008473ffffffffffffffffffffffffffffffffffffffff1673ffffffffffffffffffffffffffffffffffffffff16815260200190815260200160002060003373ffffffffffffffffffffffffffffffffffffffff1673ffffffffffffffffffffffffffffffffffffffff16815260200190815260200160002054826127d3565b600660008473ffffffffffffffffffffffffffffffffffffffff1673ffffffffffffffffffffffffffffffffffffffff16815260200190815260200160002060003373ffffffffffffffffffffffffffffffffffffffff1673ffffffffffffffffffffffffffffffffffffffff168152602001908152602001600020819055508173ffffffffffffffffffffffffffffffffffffffff1663a9059cbb33836040518363ffffffff1660e01b8152600401611989929190612e6d565b602060405180830381600087803b1580156119a357600080fd5b505af11580156119b7573d6000803e3d6000fd5b505050506040513d601f19601f820116820180604052508101906119db9190612ad5565b6119e457600080fd5b7ff341246adaac6f497bc2a656f546ab9e182111d630394f0c57c710a59a2cb567823383600660008773ffffffffffffffffffffffffffffffffffffffff1673ffffffffffffffffffffffffffffffffffffffff16815260200190815260200160002060003373ffffffffffffffffffffffffffffffffffffffff1673ffffffffffffffffffffffffffffffffffffffff16815260200190815260200160002054604051611a959493929190612e28565b60405180910390a15050565b60076020528160005260406000206020528060005260406000206000915091509054906101000a900460ff1681565b60045481565b611b5c600660008073ffffffffffffffffffffffffffffffffffffffff1673ffffffffffffffffffffffffffffffffffffffff16815260200190815260200160002060003373ffffffffffffffffffffffffffffffffffffffff1673ffffffffffffffffffffffffffffffffffffffff1681526020019081526020016000205434612075565b600660008073ffffffffffffffffffffffffffffffffffffffff1673ffffffffffffffffffffffffffffffffffffffff16815260200190815260200160002060003373ffffffffffffffffffffffffffffffffffffffff1673ffffffffffffffffffffffffffffffffffffffff168152602001908152602001600020819055507fdcbc1c05240f31ff3ad067ef1ee35ce4997762752e3a095284754544f4c709d760003334600660008073ffffffffffffffffffffffffffffffffffffffff1673ffffffffffffffffffffffffffffffffffffffff16815260200190815260200160002060003373ffffffffffffffffffffffffffffffffffffffff1673ffffffffffffffffffffffffffffffffffffffff16815260200190815260200160002054604051611c8e9493929190612e28565b60405180910390a1565b60008054906101000a900473ffffffffffffffffffffffffffffffffffffffff1673ffffffffffffffffffffffffffffffffffffffff163373ffffffffffffffffffffffffffffffffffffffff1614611d26576040517f08c379a0000000000000000000000000000000000000000000000000000000008152600401611d1d906130c2565b60405180910390fd5b80600260006101000a81548173ffffffffffffffffffffffffffffffffffffffff021916908373ffffffffffffffffffffffffffffffffffffffff16021790555050565b600260009054906101000a900473ffffffffffffffffffffffffffffffffffffffff1681565b600030826000015183602001518460400151856060015186608001518760a00151604051602001611dc79796959493929190612d1a565b604051602081830303815290604052805190602001209050600760003373ffffffffffffffffffffffffffffffffffffffff1673ffffffffffffffffffffffffffffffffffffffff168152602001908152602001600020600082815260200190815260200160002060009054906101000a900460ff1680611ef557503373ffffffffffffffffffffffffffffffffffffffff16600182604051602001611e6d9190612d9b565b604051602081830303815290604052805190602001208460e0015185610100015186610120015160405160008152602001604052604051611eb1949392919061301d565b6020604051602081039080840390855afa158015611ed3573d6000803e3d6000fd5b5050506020604051035173ffffffffffffffffffffffffffffffffffffffff16145b611efe57600080fd5b8160200151600860003373ffffffffffffffffffffffffffffffffffffffff1673ffffffffffffffffffffffffffffffffffffffff1681526020019081526020016000206000838152602001908152602001600020819055507f1e0b760c386003e9cb9bcf4fcf3997886042859d9b6ed6320e804597fcdb28b0826000015183602001518460400151856060015186608001518760a00151338960e001518a61010001518b6101200151604051611fbe9a99989796959493929190612f66565b60405180910390a15050565b6000600660008473ffffffffffffffffffffffffffffffffffffffff1673ffffffffffffffffffffffffffffffffffffffff16815260200190815260200160002060008373ffffffffffffffffffffffffffffffffffffffff1673ffffffffffffffffffffffffffffffffffffffff16815260200190815260200160002054905092915050565b60008054906101000a900473ffffffffffffffffffffffffffffffffffffffff1681565b600081836120839190613149565b905092915050565b6000670de0b6b3a76400006120a2836003546127e9565b6120ac919061319f565b90506000670de0b6b3a76400006120c5846004546127e9565b6120cf919061319f565b905060008073ffffffffffffffffffffffffffffffffffffffff16600260009054906101000a900473ffffffffffffffffffffffffffffffffffffffff1673ffffffffffffffffffffffffffffffffffffffff1614612211576000600260009054906101000a900473ffffffffffffffffffffffffffffffffffffffff1673ffffffffffffffffffffffffffffffffffffffff16631cbd0519876040518263ffffffff1660e01b81526004016121859190612dd6565b60206040518083038186803b15801561219d57600080fd5b505afa1580156121b1573d6000803e3d6000fd5b505050506040513d601f19601f820116820180604052508101906121d59190612b8f565b9050600181141561220257670de0b6b3a76400006121f5866005546127e9565b6121ff919061319f565b91505b600281141561220f578291505b505b6122a0600660008b73ffffffffffffffffffffffffffffffffffffffff1673ffffffffffffffffffffffffffffffffffffffff16815260200190815260200160002060003373ffffffffffffffffffffffffffffffffffffffff1673ffffffffffffffffffffffffffffffffffffffff1681526020019081526020016000205461229b8685612075565b6127d3565b600660008b73ffffffffffffffffffffffffffffffffffffffff1673ffffffffffffffffffffffffffffffffffffffff16815260200190815260200160002060003373ffffffffffffffffffffffffffffffffffffffff1673ffffffffffffffffffffffffffffffffffffffff168152602001908152602001600020819055506123b8600660008b73ffffffffffffffffffffffffffffffffffffffff1673ffffffffffffffffffffffffffffffffffffffff16815260200190815260200160002060008773ffffffffffffffffffffffffffffffffffffffff1673ffffffffffffffffffffffffffffffffffffffff168152602001908152602001600020546123b36123ad8785612075565b866127d3565b612075565b600660008b73ffffffffffffffffffffffffffffffffffffffff1673ffffffffffffffffffffffffffffffffffffffff16815260200190815260200160002060008773ffffffffffffffffffffffffffffffffffffffff1673ffffffffffffffffffffffffffffffffffffffff168152602001908152602001600020819055506124f2600660008b73ffffffffffffffffffffffffffffffffffffffff1673ffffffffffffffffffffffffffffffffffffffff1681526020019081526020016000206000600160009054906101000a900473ffffffffffffffffffffffffffffffffffffffff1673ffffffffffffffffffffffffffffffffffffffff1673ffffffffffffffffffffffffffffffffffffffff168152602001908152602001600020546124ed6124e78686612075565b846127d3565b612075565b600660008b73ffffffffffffffffffffffffffffffffffffffff1673ffffffffffffffffffffffffffffffffffffffff1681526020019081526020016000206000600160009054906101000a900473ffffffffffffffffffffffffffffffffffffffff1673ffffffffffffffffffffffffffffffffffffffff1673ffffffffffffffffffffffffffffffffffffffff1681526020019081526020016000208190555061262e600660008973ffffffffffffffffffffffffffffffffffffffff1673ffffffffffffffffffffffffffffffffffffffff16815260200190815260200160002060008773ffffffffffffffffffffffffffffffffffffffff1673ffffffffffffffffffffffffffffffffffffffff168152602001908152602001600020548961261f89886127e9565b612629919061319f565b6127d3565b600660008973ffffffffffffffffffffffffffffffffffffffff1673ffffffffffffffffffffffffffffffffffffffff16815260200190815260200160002060008773ffffffffffffffffffffffffffffffffffffffff1673ffffffffffffffffffffffffffffffffffffffff16815260200190815260200160002081905550612748600660008973ffffffffffffffffffffffffffffffffffffffff1673ffffffffffffffffffffffffffffffffffffffff16815260200190815260200160002060003373ffffffffffffffffffffffffffffffffffffffff1673ffffffffffffffffffffffffffffffffffffffff168152602001908152602001600020548961273989886127e9565b612743919061319f565b612075565b600660008973ffffffffffffffffffffffffffffffffffffffff1673ffffffffffffffffffffffffffffffffffffffff16815260200190815260200160002060003373ffffffffffffffffffffffffffffffffffffffff1673ffffffffffffffffffffffffffffffffffffffff16815260200190815260200160002081905550505050505050505050565b600081836127e1919061322a565b905092915050565b600081836127f791906131d0565b905092915050565b60008135905061280e816134a1565b92915050565b600081519050612823816134b8565b92915050565b600081359050612838816134cf565b92915050565b6000610140828403121561285157600080fd5b61285c6101406130fd565b9050600061286c848285016127ff565b600083015250602061288084828501612930565b6020830152506040612894848285016127ff565b60408301525060606128a884828501612930565b60608301525060806128bc84828501612930565b60808301525060a06128d084828501612930565b60a08301525060c06128e4848285016127ff565b60c08301525060e06128f88482850161295a565b60e08301525061010061290d84828501612829565b6101008301525061012061292384828501612829565b6101208301525092915050565b60008135905061293f816134e6565b92915050565b600081519050612954816134e6565b92915050565b600081359050612969816134fd565b92915050565b60006020828403121561298157600080fd5b600061298f848285016127ff565b91505092915050565b600080604083850312156129ab57600080fd5b60006129b9858286016127ff565b92505060206129ca858286016127ff565b9150509250929050565b600080604083850312156129e757600080fd5b60006129f5858286016127ff565b9250506020612a0685828601612829565b9150509250929050565b60008060408385031215612a2357600080fd5b6000612a31858286016127ff565b9250506020612a4285828601612930565b9150509250929050565b60008060008060008060c08789031215612a6557600080fd5b6000612a7389828a016127ff565b9650506020612a8489828a01612930565b9550506040612a9589828a016127ff565b9450506060612aa689828a01612930565b9350506080612ab789828a01612930565b92505060a0612ac889828a01612930565b9150509295509295509295565b600060208284031215612ae757600080fd5b6000612af584828501612814565b91505092915050565b60006101408284031215612b1157600080fd5b6000612b1f8482850161283e565b91505092915050565b6000806101608385031215612b3c57600080fd5b6000612b4a8582860161283e565b925050610140612b5c85828601612930565b9150509250929050565b600060208284031215612b7857600080fd5b6000612b8684828501612930565b91505092915050565b600060208284031215612ba157600080fd5b6000612baf84828501612945565b91505092915050565b612bc18161325e565b82525050565b612bd8612bd38261325e565b6132ee565b82525050565b612be781613270565b82525050565b612bf68161327c565b82525050565b612c0d612c088261327c565b613300565b82525050565b6000612c20601c8361313e565b9150612c2b826133d1565b601c82019050919050565b6000612c4360198361312d565b9150612c4e826133fa565b602082019050919050565b6000612c6660108361312d565b9150612c7182613423565b602082019050919050565b6000612c89600f8361312d565b9150612c948261344c565b602082019050919050565b6000612cac600d8361312d565b9150612cb782613475565b602082019050919050565b6000612ccf600083613122565b9150612cda8261349e565b600082019050919050565b612cee816132a6565b82525050565b612d05612d00826132a6565b61331c565b82525050565b612d14816132b0565b82525050565b6000612d26828a612bc7565b601482019150612d368289612bc7565b601482019150612d468288612cf4565b602082019150612d568287612bc7565b601482019150612d668286612cf4565b602082019150612d768285612cf4565b602082019150612d868284612cf4565b60208201915081905098975050505050505050565b6000612da682612c13565b9150612db28284612bfc565b60208201915081905092915050565b6000612dcc82612cc2565b9150819050919050565b6000602082019050612deb6000830184612bb8565b92915050565b6000606082019050612e066000830186612bb8565b612e136020830185612bb8565b612e206040830184612ce5565b949350505050565b6000608082019050612e3d6000830187612bb8565b612e4a6020830186612bb8565b612e576040830185612ce5565b612e646060830184612ce5565b95945050505050565b6000604082019050612e826000830185612bb8565b612e8f6020830184612ce5565b9392505050565b600060c082019050612eab6000830189612bb8565b612eb86020830188612ce5565b612ec56040830187612bb8565b612ed26060830186612ce5565b612edf6080830185612bb8565b612eec60a0830184612bb8565b979650505050505050565b600060e082019050612f0c600083018a612bb8565b612f196020830189612ce5565b612f266040830188612bb8565b612f336060830187612ce5565b612f406080830186612ce5565b612f4d60a0830185612ce5565b612f5a60c0830184612bb8565b98975050505050505050565b600061014082019050612f7c600083018d612bb8565b612f89602083018c612ce5565b612f96604083018b612bb8565b612fa3606083018a612ce5565b612fb06080830189612ce5565b612fbd60a0830188612ce5565b612fca60c0830187612bb8565b612fd760e0830186612d0b565b612fe5610100830185612bed565b612ff3610120830184612bed565b9b9a5050505050505050505050565b60006020820190506130176000830184612bde565b92915050565b60006080820190506130326000830187612bed565b61303f6020830186612d0b565b61304c6040830185612bed565b6130596060830184612bed565b95945050505050565b6000602082019050818103600083015261307b81612c36565b9050919050565b6000602082019050818103600083015261309b81612c59565b9050919050565b600060208201905081810360008301526130bb81612c7c565b9050919050565b600060208201905081810360008301526130db81612c9f565b9050919050565b60006020820190506130f76000830184612ce5565b92915050565b6000613107613118565b905061311382826132bd565b919050565b6000604051905090565b600081905092915050565b600082825260208201905092915050565b600081905092915050565b6000613154826132a6565b915061315f836132a6565b9250827fffffffffffffffffffffffffffffffffffffffffffffffffffffffffffffffff0382111561319457613193613326565b5b828201905092915050565b60006131aa826132a6565b91506131b5836132a6565b9250826131c5576131c4613355565b5b828204905092915050565b60006131db826132a6565b91506131e6836132a6565b9250817fffffffffffffffffffffffffffffffffffffffffffffffffffffffffffffffff048311821515161561321f5761321e613326565b5b828202905092915050565b6000613235826132a6565b9150613240836132a6565b92508282101561325357613252613326565b5b828203905092915050565b600061326982613286565b9050919050565b60008115159050919050565b6000819050919050565b600073ffffffffffffffffffffffffffffffffffffffff82169050919050565b6000819050919050565b600060ff82169050919050565b6132c6826133b3565b810181811067ffffffffffffffff821117156132e5576132e4613384565b5b80604052505050565b60006132f98261330a565b9050919050565b6000819050919050565b6000613315826133c4565b9050919050565b6000819050919050565b7f4e487b7100000000000000000000000000000000000000000000000000000000600052601160045260246000fd5b7f4e487b7100000000000000000000000000000000000000000000000000000000600052601260045260246000fd5b7f4e487b7100000000000000000000000000000000000000000000000000000000600052604160045260246000fd5b6000601f19601f8301169050919050565b60008160601b9050919050565b7f19457468657265756d205369676e6564204d6573736167653a0a333200000000600082015250565b7f546f6b656e2e7472616e7366657246726f6d206661696c656400000000000000600082015250565b7f7769746864726177206661696c65642e00000000000000000000000000000000600082015250565b7f7065726d6974206e6f7420706173730000000000000000000000000000000000600082015250565b7f4e6f207065726d697373696f6e00000000000000000000000000000000000000600082015250565b50565b6134aa8161325e565b81146134b557600080fd5b50565b6134c181613270565b81146134cc57600080fd5b50565b6134d88161327c565b81146134e357600080fd5b50565b6134ef816132a6565b81146134fa57600080fd5b50565b613506816132b0565b811461351157600080fd5b5056fea2646970667358221220195dae1aa9efbcecb6a76da964a783100a7ec27fbced73415ffa756694145f2864736f6c63430008040033",
  "linkReferences": {},
  "deployedLinkReferences": {}
}