{
  "_format": "hh-sol-artifact-1",
  "contractName": "Token",
  "sourceName": "contracts/EtherDelta.sol",
  "abi": [
    {
      "anonymous": false,
      "inputs": [
        {
          "indexed": true,
          "internalType": "address",
          "name": "_owner",
          "type": "address"
        },
        {
          "indexed": true,
          "internalType": "address",
          "name": "_spender",
          "type": "address"
        },
        {
          "indexed": false,
          "internalType": "uint256",
          "name": "_value",
          "type": "uint256"
        }
      ],
      "name": "Approval",
      "type": "event"
    },
    {
      "anonymous": false,
      "inputs": [
        {
          "indexed": true,
          "internalType": "address",
          "name": "_from",
          "type": "address"
        },
        {
          "indexed": true,
          "internalType": "address",
          "name": "_to",
          "type": "address"
        },
        {
          "indexed": false,
          "internalType": "uint256",
          "name": "_value",
          "type": "uint256"
        }
      ],
      "name": "Transfer",
      "type": "event"
    },
    {
      "inputs": [
        {
          "internalType": "address",
          "name": "_owner",
          "type": "address"
        },
        {
          "internalType": "address",
          "name": "_spender",
          "type": "address"
        }
      ],
      "name": "allowance",
      "outputs": [
        {
          "internalType": "uint256",
          "name": "remaining",
          "type": "uint256"
        }
      ],
      "stateMutability": "view",
      "type": "function"
    },
    {
      "inputs": [
        {
          "internalType": "address",
          "name": "_spender",
          "type": "address"
        },
        {
          "internalType": "uint256",
          "name": "_value",
          "type": "uint256"
        }
      ],
      "name": "approve",
      "outputs": [
        {
          "internalType": "bool",
          "name": "success",
          "type": "bool"
        }
      ],
      "stateMutability": "nonpayable",
      "type": "function"
    },
    {
      "inputs": [
        {
          "internalType": "address",
          "name": "_owner",
          "type": "address"
        }
      ],
      "name": "balanceOf",
      "outputs": [
        {
          "internalType": "uint256",
          "name": "balance",
          "type": "uint256"
        }
      ],
      "stateMutability": "view",
      "type": "function"
    },
    {
      "inputs": [],
      "name": "decimals",
      "outputs": [
        {
          "internalType": "uint256",
          "name": "",
          "type": "uint256"
        }
      ],
      "stateMutability": "view",
      "type": "function"
    },
    {
      "inputs": [],
      "name": "name",
      "outputs": [
        {
          "internalType": "string",
          "name": "",
          "type": "string"
        }
      ],
      "stateMutability": "view",
      "type": "function"
    },
    {
      "inputs": [
        {
          "internalType": "address",
          "name": "_to",
          "type": "address"
        },
        {
          "internalType": "uint256",
          "name": "_value",
          "type": "uint256"
        }
      ],
      "name": "transfer",
      "outputs": [
        {
          "internalType": "bool",
          "name": "success",
          "type": "bool"
        }
      ],
      "stateMutability": "nonpayable",
      "type": "function"
    },
    {
      "inputs": [
        {
          "internalType": "address",
          "name": "_from",
          "type": "address"
        },
        {
          "internalType": "address",
          "name": "_to",
          "type": "address"
        },
        {
          "internalType": "uint256",
          "name": "_value",
          "type": "uint256"
        }
      ],
      "name": "transferFrom",
      "outputs": [
        {
          "internalType": "bool",
          "name": "success",
          "type": "bool"
        }
      ],
      "stateMutability": "nonpayable",
      "type": "function"
    }
  ],
  "bytecode": "0x608060405234801561001057600080fd5b506105a0806100206000396000f3fe608060405234801561001057600080fd5b506004361061007d5760003560e01c8063313ce5671161005b578063313ce5671461010057806370a082311461011e578063a9059cbb1461014e578063dd62ed3e1461017e5761007d565b806306fdde0314610082578063095ea7b3146100a057806323b872dd146100d0575b600080fd5b61008a6101ae565b60405161009791906103f6565b60405180910390f35b6100ba60048036038101906100b59190610348565b61023c565b6040516100c791906103db565b60405180910390f35b6100ea60048036038101906100e591906102f9565b610244565b6040516100f791906103db565b60405180910390f35b61010861024d565b6040516101159190610418565b60405180910390f35b61013860048036038101906101339190610294565b610253565b6040516101459190610418565b60405180910390f35b61016860048036038101906101639190610348565b61025a565b60405161017591906103db565b60405180910390f35b610198600480360381019061019391906102bd565b610262565b6040516101a59190610418565b60405180910390f35b600180546101bb906104ca565b80601f01602080910402602001604051908101604052809291908181526020018280546101e7906104ca565b80156102345780601f1061020957610100808354040283529160200191610234565b820191906000526020600020905b81548152906001019060200180831161021757829003601f168201915b505050505081565b600092915050565b60009392505050565b60005481565b6000919050565b600092915050565b600092915050565b6000813590506102798161053c565b92915050565b60008135905061028e81610553565b92915050565b6000602082840312156102a657600080fd5b60006102b48482850161026a565b91505092915050565b600080604083850312156102d057600080fd5b60006102de8582860161026a565b92505060206102ef8582860161026a565b9150509250929050565b60008060006060848603121561030e57600080fd5b600061031c8682870161026a565b935050602061032d8682870161026a565b925050604061033e8682870161027f565b9150509250925092565b6000806040838503121561035b57600080fd5b60006103698582860161026a565b925050602061037a8582860161027f565b9150509250929050565b61038d81610461565b82525050565b600061039e82610433565b6103a8818561043e565b93506103b8818560208601610497565b6103c18161052b565b840191505092915050565b6103d58161048d565b82525050565b60006020820190506103f06000830184610384565b92915050565b600060208201905081810360008301526104108184610393565b905092915050565b600060208201905061042d60008301846103cc565b92915050565b600081519050919050565b600082825260208201905092915050565b600061045a8261046d565b9050919050565b60008115159050919050565b600073ffffffffffffffffffffffffffffffffffffffff82169050919050565b6000819050919050565b60005b838110156104b557808201518184015260208101905061049a565b838111156104c4576000848401525b50505050565b600060028204905060018216806104e257607f821691505b602082108114156104f6576104f56104fc565b5b50919050565b7f4e487b7100000000000000000000000000000000000000000000000000000000600052602260045260246000fd5b6000601f19601f8301169050919050565b6105458161044f565b811461055057600080fd5b50565b61055c8161048d565b811461056757600080fd5b5056fea26469706673582212205d8813eb25bb6643c8e666e0c8c528e91e3c08c157dd3c91d5567e2139cd120364736f6c63430008040033",
  "linkReferences": {},
  "deployedLinkReferences": {}
}