{
  "_format": "hh-sol-artifact-1",
  "contractName": "ERC20PresetMinterPauser",
  "sourceName": "@openzeppelin/contracts/token/ERC20/presets/ERC20PresetMinterPauser.sol",
  "abi": [
    {
      "inputs": [
        {
          "internalType": "string",
          "name": "name",
          "type": "string"
        },
        {
          "internalType": "string",
          "name": "symbol",
          "type": "string"
        }
      ],
      "stateMutability": "nonpayable",
      "type": "constructor"
    },
    {
      "anonymous": false,
      "inputs": [
        {
          "indexed": true,
          "internalType": "address",
          "name": "owner",
          "type": "address"
        },
        {
          "indexed": true,
          "internalType": "address",
          "name": "spender",
          "type": "address"
        },
        {
          "indexed": false,
          "internalType": "uint256",
          "name": "value",
          "type": "uint256"
        }
      ],
      "name": "Approval",
      "type": "event"
    },
    {
      "anonymous": false,
      "inputs": [
        {
          "indexed": false,
          "internalType": "address",
          "name": "account",
          "type": "address"
        }
      ],
      "name": "Paused",
      "type": "event"
    },
    {
      "anonymous": false,
      "inputs": [
        {
          "indexed": true,
          "internalType": "bytes32",
          "name": "role",
          "type": "bytes32"
        },
        {
          "indexed": true,
          "internalType": "bytes32",
          "name": "previousAdminRole",
          "type": "bytes32"
        },
        {
          "indexed": true,
          "internalType": "bytes32",
          "name": "newAdminRole",
          "type": "bytes32"
        }
      ],
      "name": "RoleAdminChanged",
      "type": "event"
    },
    {
      "anonymous": false,
      "inputs": [
        {
          "indexed": true,
          "internalType": "bytes32",
          "name": "role",
          "type": "bytes32"
        },
        {
          "indexed": true,
          "internalType": "address",
          "name": "account",
          "type": "address"
        },
        {
          "indexed": true,
          "internalType": "address",
          "name": "sender",
          "type": "address"
        }
      ],
      "name": "RoleGranted",
      "type": "event"
    },
    {
      "anonymous": false,
      "inputs": [
        {
          "indexed": true,
          "internalType": "bytes32",
          "name": "role",
          "type": "bytes32"
        },
        {
          "indexed": true,
          "internalType": "address",
          "name": "account",
          "type": "address"
        },
        {
          "indexed": true,
          "internalType": "address",
          "name": "sender",
          "type": "address"
        }
      ],
      "name": "RoleRevoked",
      "type": "event"
    },
    {
      "anonymous": false,
      "inputs": [
        {
          "indexed": true,
          "internalType": "address",
          "name": "from",
          "type": "address"
        },
        {
          "indexed": true,
          "internalType": "address",
          "name": "to",
          "type": "address"
        },
        {
          "indexed": false,
          "internalType": "uint256",
          "name": "value",
          "type": "uint256"
        }
      ],
      "name": "Transfer",
      "type": "event"
    },
    {
      "anonymous": false,
      "inputs": [
        {
          "indexed": false,
          "internalType": "address",
          "name": "account",
          "type": "address"
        }
      ],
      "name": "Unpaused",
      "type": "event"
    },
    {
      "inputs": [],
      "name": "DEFAULT_ADMIN_ROLE",
      "outputs": [
        {
          "internalType": "bytes32",
          "name": "",
          "type": "bytes32"
        }
      ],
      "stateMutability": "view",
      "type": "function"
    },
    {
      "inputs": [],
      "name": "MINTER_ROLE",
      "outputs": [
        {
          "internalType": "bytes32",
          "name": "",
          "type": "bytes32"
        }
      ],
      "stateMutability": "view",
      "type": "function"
    },
    {
      "inputs": [],
      "name": "PAUSER_ROLE",
      "outputs": [
        {
          "internalType": "bytes32",
          "name": "",
          "type": "bytes32"
        }
      ],
      "stateMutability": "view",
      "type": "function"
    },
    {
      "inputs": [
        {
          "internalType": "address",
          "name": "owner",
          "type": "address"
        },
        {
          "internalType": "address",
          "name": "spender",
          "type": "address"
        }
      ],
      "name": "allowance",
      "outputs": [
        {
          "internalType": "uint256",
          "name": "",
          "type": "uint256"
        }
      ],
      "stateMutability": "view",
      "type": "function"
    },
    {
      "inputs": [
        {
          "internalType": "address",
          "name": "spender",
          "type": "address"
        },
        {
          "internalType": "uint256",
          "name": "amount",
          "type": "uint256"
        }
      ],
      "name": "approve",
      "outputs": [
        {
          "internalType": "bool",
          "name": "",
          "type": "bool"
        }
      ],
      "stateMutability": "nonpayable",
      "type": "function"
    },
    {
      "inputs": [
        {
          "internalType": "address",
          "name": "account",
          "type": "address"
        }
      ],
      "name": "balanceOf",
      "outputs": [
        {
          "internalType": "uint256",
          "name": "",
          "type": "uint256"
        }
      ],
      "stateMutability": "view",
      "type": "function"
    },
    {
      "inputs": [
        {
          "internalType": "uint256",
          "name": "amount",
          "type": "uint256"
        }
      ],
      "name": "burn",
      "outputs": [],
      "stateMutability": "nonpayable",
      "type": "function"
    },
    {
      "inputs": [
        {
          "internalType": "address",
          "name": "account",
          "type": "address"
        },
        {
          "internalType": "uint256",
          "name": "amount",
          "type": "uint256"
        }
      ],
      "name": "burnFrom",
      "outputs": [],
      "stateMutability": "nonpayable",
      "type": "function"
    },
    {
      "inputs": [],
      "name": "decimals",
      "outputs": [
        {
          "internalType": "uint8",
          "name": "",
          "type": "uint8"
        }
      ],
      "stateMutability": "view",
      "type": "function"
    },
    {
      "inputs": [
        {
          "internalType": "address",
          "name": "spender",
          "type": "address"
        },
        {
          "internalType": "uint256",
          "name": "subtractedValue",
          "type": "uint256"
        }
      ],
      "name": "decreaseAllowance",
      "outputs": [
        {
          "internalType": "bool",
          "name": "",
          "type": "bool"
        }
      ],
      "stateMutability": "nonpayable",
      "type": "function"
    },
    {
      "inputs": [
        {
          "internalType": "bytes32",
          "name": "role",
          "type": "bytes32"
        }
      ],
      "name": "getRoleAdmin",
      "outputs": [
        {
          "internalType": "bytes32",
          "name": "",
          "type": "bytes32"
        }
      ],
      "stateMutability": "view",
      "type": "function"
    },
    {
      "inputs": [
        {
          "internalType": "bytes32",
          "name": "role",
          "type": "bytes32"
        },
        {
          "internalType": "uint256",
          "name": "index",
          "type": "uint256"
        }
      ],
      "name": "getRoleMember",
      "outputs": [
        {
          "internalType": "address",
          "name": "",
          "type": "address"
        }
      ],
      "stateMutability": "view",
      "type": "function"
    },
    {
      "inputs": [
        {
          "internalType": "bytes32",
          "name": "role",
          "type": "bytes32"
        }
      ],
      "name": "getRoleMemberCount",
      "outputs": [
        {
          "internalType": "uint256",
          "name": "",
          "type": "uint256"
        }
      ],
      "stateMutability": "view",
      "type": "function"
    },
    {
      "inputs": [
        {
          "internalType": "bytes32",
          "name": "role",
          "type": "bytes32"
        },
        {
          "internalType": "address",
          "name": "account",
          "type": "address"
        }
      ],
      "name": "grantRole",
      "outputs": [],
      "stateMutability": "nonpayable",
      "type": "function"
    },
    {
      "inputs": [
        {
          "internalType": "bytes32",
          "name": "role",
          "type": "bytes32"
        },
        {
          "internalType": "address",
          "name": "account",
          "type": "address"
        }
      ],
      "name": "hasRole",
      "outputs": [
        {
          "internalType": "bool",
          "name": "",
          "type": "bool"
        }
      ],
      "stateMutability": "view",
      "type": "function"
    },
    {
      "inputs": [
        {
          "internalType": "address",
          "name": "spender",
          "type": "address"
        },
        {
          "internalType": "uint256",
          "name": "addedValue",
          "type": "uint256"
        }
      ],
      "name": "increaseAllowance",
      "outputs": [
        {
          "internalType": "bool",
          "name": "",
          "type": "bool"
        }
      ],
      "stateMutability": "nonpayable",
      "type": "function"
    },
    {
      "inputs": [
        {
          "internalType": "address",
          "name": "to",
          "type": "address"
        },
        {
          "internalType": "uint256",
          "name": "amount",
          "type": "uint256"
        }
      ],
      "name": "mint",
      "outputs": [],
      "stateMutability": "nonpayable",
      "type": "function"
    },
    {
      "inputs": [],
      "name": "name",
      "outputs": [
        {
          "internalType": "string",
          "name": "",
          "type": "string"
        }
      ],
      "stateMutability": "view",
      "type": "function"
    },
    {
      "inputs": [],
      "name": "pause",
      "outputs": [],
      "stateMutability": "nonpayable",
      "type": "function"
    },
    {
      "inputs": [],
      "name": "paused",
      "outputs": [
        {
          "internalType": "bool",
          "name": "",
          "type": "bool"
        }
      ],
      "stateMutability": "view",
      "type": "function"
    },
    {
      "inputs": [
        {
          "internalType": "bytes32",
          "name": "role",
          "type": "bytes32"
        },
        {
          "internalType": "address",
          "name": "account",
          "type": "address"
        }
      ],
      "name": "renounceRole",
      "outputs": [],
      "stateMutability": "nonpayable",
      "type": "function"
    },
    {
      "inputs": [
        {
          "internalType": "bytes32",
          "name": "role",
          "type": "bytes32"
        },
        {
          "internalType": "address",
          "name": "account",
          "type": "address"
        }
      ],
      "name": "revokeRole",
      "outputs": [],
      "stateMutability": "nonpayable",
      "type": "function"
    },
    {
      "inputs": [
        {
          "internalType": "bytes4",
          "name": "interfaceId",
          "type": "bytes4"
        }
      ],
      "name": "supportsInterface",
      "outputs": [
        {
          "internalType": "bool",
          "name": "",
          "type": "bool"
        }
      ],
      "stateMutability": "view",
      "type": "function"
    },
    {
      "inputs": [],
      "name": "symbol",
      "outputs": [
        {
          "internalType": "string",
          "name": "",
          "type": "string"
        }
      ],
      "stateMutability": "view",
      "type": "function"
    },
    {
      "inputs": [],
      "name": "totalSupply",
      "outputs": [
        {
          "internalType": "uint256",
          "name": "",
          "type": "uint256"
        }
      ],
      "stateMutability": "view",
      "type": "function"
    },
    {
      "inputs": [
        {
          "internalType": "address",
          "name": "to",
          "type": "address"
        },
        {
          "internalType": "uint256",
          "name": "amount",
          "type": "uint256"
        }
      ],
      "name": "transfer",
      "outputs": [
        {
          "internalType": "bool",
          "name": "",
          "type": "bool"
        }
      ],
      "stateMutability": "nonpayable",
      "type": "function"
    },
    {
      "inputs": [
        {
          "internalType": "address",
          "name": "from",
          "type": "address"
        },
        {
          "internalType": "address",
          "name": "to",
          "type": "address"
        },
        {
          "internalType": "uint256",
          "name": "amount",
          "type": "uint256"
        }
      ],
      "name": "transferFrom",
      "outputs": [
        {
          "internalType": "bool",
          "name": "",
          "type": "bool"
        }
      ],
      "stateMutability": "nonpayable",
      "type": "function"
    },
    {
      "inputs": [],
      "name": "unpause",
      "outputs": [],
      "stateMutability": "nonpayable",
      "type": "function"
    }
  ],
  "bytecode": "0x60806040523480156200001157600080fd5b5060405162003775380380620037758339818101604052810190620000379190620004ee565b8181816005908051906020019062000051929190620003cc565b5080600690805190602001906200006a929190620003cc565b5050506000600760006101000a81548160ff021916908315150217905550620000ac6000801b620000a06200013660201b60201c565b6200013e60201b60201c565b620000ed7f9f2df0fed2c77648de5860a4cc508cd0818c85b8b8a1ab4ceeef8d981c8956a6620000e16200013660201b60201c565b6200013e60201b60201c565b6200012e7f65d7a28e3265b37a6474929f336521b332c1681b933f6cb9f3376673440d862a620001226200013660201b60201c565b6200013e60201b60201c565b505062000692565b600033905090565b6200015082826200015460201b60201c565b5050565b6200016b82826200019c60201b62000d061760201c565b6200019781600160008581526020019081526020016000206200028d60201b62000de61790919060201c565b505050565b620001ae8282620002c560201b60201c565b6200028957600160008084815260200190815260200160002060000160008373ffffffffffffffffffffffffffffffffffffffff1673ffffffffffffffffffffffffffffffffffffffff16815260200190815260200160002060006101000a81548160ff0219169083151502179055506200022e6200013660201b60201c565b73ffffffffffffffffffffffffffffffffffffffff168173ffffffffffffffffffffffffffffffffffffffff16837f2f8788117e7eff1d82e926ec794901d17c78024a50270940304540a733656f0d60405160405180910390a45b5050565b6000620002bd836000018373ffffffffffffffffffffffffffffffffffffffff1660001b6200032f60201b60201c565b905092915050565b600080600084815260200190815260200160002060000160008373ffffffffffffffffffffffffffffffffffffffff1673ffffffffffffffffffffffffffffffffffffffff16815260200190815260200160002060009054906101000a900460ff16905092915050565b6000620003438383620003a960201b60201c565b6200039e578260000182908060018154018082558091505060019003906000526020600020016000909190919091505582600001805490508360010160008481526020019081526020016000208190555060019050620003a3565b600090505b92915050565b600080836001016000848152602001908152602001600020541415905092915050565b828054620003da90620005fe565b90600052602060002090601f016020900481019282620003fe57600085556200044a565b82601f106200041957805160ff19168380011785556200044a565b828001600101855582156200044a579182015b82811115620004495782518255916020019190600101906200042c565b5b5090506200045991906200045d565b5090565b5b80821115620004785760008160009055506001016200045e565b5090565b6000620004936200048d8462000595565b62000561565b905082815260208101848484011115620004ac57600080fd5b620004b9848285620005c8565b509392505050565b600082601f830112620004d357600080fd5b8151620004e58482602086016200047c565b91505092915050565b600080604083850312156200050257600080fd5b600083015167ffffffffffffffff8111156200051d57600080fd5b6200052b85828601620004c1565b925050602083015167ffffffffffffffff8111156200054957600080fd5b6200055785828601620004c1565b9150509250929050565b6000604051905081810181811067ffffffffffffffff821117156200058b576200058a62000663565b5b8060405250919050565b600067ffffffffffffffff821115620005b357620005b262000663565b5b601f19601f8301169050602081019050919050565b60005b83811015620005e8578082015181840152602081019050620005cb565b83811115620005f8576000848401525b50505050565b600060028204905060018216806200061757607f821691505b602082108114156200062e576200062d62000634565b5b50919050565b7f4e487b7100000000000000000000000000000000000000000000000000000000600052602260045260246000fd5b7f4e487b7100000000000000000000000000000000000000000000000000000000600052604160045260246000fd5b6130d380620006a26000396000f3fe608060405234801561001057600080fd5b50600436106101c45760003560e01c806370a08231116100f9578063a457c2d711610097578063d539139311610071578063d53913931461052d578063d547741f1461054b578063dd62ed3e14610567578063e63ab1e914610597576101c4565b8063a457c2d71461049d578063a9059cbb146104cd578063ca15c873146104fd576101c4565b80639010d07c116100d35780639010d07c1461040157806391d148541461043157806395d89b4114610461578063a217fddf1461047f576101c4565b806370a08231146103ab57806379cc6790146103db5780638456cb59146103f7576101c4565b8063313ce567116101665780633f4ba83a116101405780633f4ba83a1461034b57806340c10f191461035557806342966c68146103715780635c975abb1461038d576101c4565b8063313ce567146102e157806336568abe146102ff578063395093511461031b576101c4565b806318160ddd116101a257806318160ddd1461024757806323b872dd14610265578063248a9ca3146102955780632f2ff15d146102c5576101c4565b806301ffc9a7146101c957806306fdde03146101f9578063095ea7b314610217575b600080fd5b6101e360048036038101906101de9190612295565b6105b5565b6040516101f09190612adf565b60405180910390f35b61020161062f565b60405161020e9190612b15565b60405180910390f35b610231600480360381019061022c91906121b8565b6106c1565b60405161023e9190612adf565b60405180910390f35b61024f6106e4565b60405161025c9190612d77565b60405180910390f35b61027f600480360381019061027a9190612169565b6106ee565b60405161028c9190612adf565b60405180910390f35b6102af60048036038101906102aa91906121f4565b61071d565b6040516102bc9190612afa565b60405180910390f35b6102df60048036038101906102da919061221d565b61073c565b005b6102e961075d565b6040516102f69190612d92565b60405180910390f35b6103196004803603810190610314919061221d565b610766565b005b610335600480360381019061033091906121b8565b6107e9565b6040516103429190612adf565b60405180910390f35b610353610820565b005b61036f600480360381019061036a91906121b8565b61089a565b005b61038b600480360381019061038691906122be565b610918565b005b61039561092c565b6040516103a29190612adf565b60405180910390f35b6103c560048036038101906103c09190612104565b610943565b6040516103d29190612d77565b60405180910390f35b6103f560048036038101906103f091906121b8565b61098c565b005b6103ff6109ac565b005b61041b60048036038101906104169190612259565b610a26565b6040516104289190612ac4565b60405180910390f35b61044b6004803603810190610446919061221d565b610a55565b6040516104589190612adf565b60405180910390f35b610469610abf565b6040516104769190612b15565b60405180910390f35b610487610b51565b6040516104949190612afa565b60405180910390f35b6104b760048036038101906104b291906121b8565b610b58565b6040516104c49190612adf565b60405180910390f35b6104e760048036038101906104e291906121b8565b610bcf565b6040516104f49190612adf565b60405180910390f35b610517600480360381019061051291906121f4565b610bf2565b6040516105249190612d77565b60405180910390f35b610535610c16565b6040516105429190612afa565b60405180910390f35b6105656004803603810190610560919061221d565b610c3a565b005b610581600480360381019061057c919061212d565b610c5b565b60405161058e9190612d77565b60405180910390f35b61059f610ce2565b6040516105ac9190612afa565b60405180910390f35b60007f5a05180f000000000000000000000000000000000000000000000000000000007bffffffffffffffffffffffffffffffffffffffffffffffffffffffff1916827bffffffffffffffffffffffffffffffffffffffffffffffffffffffff19161480610628575061062782610e16565b5b9050919050565b60606005805461063e90612fa0565b80601f016020809104026020016040519081016040528092919081815260200182805461066a90612fa0565b80156106b75780601f1061068c576101008083540402835291602001916106b7565b820191906000526020600020905b81548152906001019060200180831161069a57829003601f168201915b5050505050905090565b6000806106cc610e90565b90506106d9818585610e98565b600191505092915050565b6000600454905090565b6000806106f9610e90565b9050610706858285611063565b6107118585856110ef565b60019150509392505050565b6000806000838152602001908152602001600020600101549050919050565b6107458261071d565b61074e81611373565b6107588383611387565b505050565b60006012905090565b61076e610e90565b73ffffffffffffffffffffffffffffffffffffffff168173ffffffffffffffffffffffffffffffffffffffff16146107db576040517f08c379a00000000000000000000000000000000000000000000000000000000081526004016107d290612d17565b60405180910390fd5b6107e582826113bb565b5050565b6000806107f4610e90565b90506108158185856108068589610c5b565b6108109190612dd4565b610e98565b600191505092915050565b6108517f65d7a28e3265b37a6474929f336521b332c1681b933f6cb9f3376673440d862a61084c610e90565b610a55565b610890576040517f08c379a000000000000000000000000000000000000000000000000000000000815260040161088790612bb7565b60405180910390fd5b6108986113ef565b565b6108cb7f9f2df0fed2c77648de5860a4cc508cd0818c85b8b8a1ab4ceeef8d981c8956a66108c6610e90565b610a55565b61090a576040517f08c379a000000000000000000000000000000000000000000000000000000000815260040161090190612c57565b60405180910390fd5b6109148282611452565b5050565b610929610923610e90565b826115b3565b50565b6000600760009054906101000a900460ff16905090565b6000600260008373ffffffffffffffffffffffffffffffffffffffff1673ffffffffffffffffffffffffffffffffffffffff168152602001908152602001600020549050919050565b61099e82610998610e90565b83611063565b6109a882826115b3565b5050565b6109dd7f65d7a28e3265b37a6474929f336521b332c1681b933f6cb9f3376673440d862a6109d8610e90565b610a55565b610a1c576040517f08c379a0000000000000000000000000000000000000000000000000000000008152600401610a1390612cd7565b60405180910390fd5b610a2461178c565b565b6000610a4d82600160008681526020019081526020016000206117ef90919063ffffffff16565b905092915050565b600080600084815260200190815260200160002060000160008373ffffffffffffffffffffffffffffffffffffffff1673ffffffffffffffffffffffffffffffffffffffff16815260200190815260200160002060009054906101000a900460ff16905092915050565b606060068054610ace90612fa0565b80601f0160208091040260200160405190810160405280929190818152602001828054610afa90612fa0565b8015610b475780601f10610b1c57610100808354040283529160200191610b47565b820191906000526020600020905b815481529060010190602001808311610b2a57829003601f168201915b5050505050905090565b6000801b81565b600080610b63610e90565b90506000610b718286610c5b565b905083811015610bb6576040517f08c379a0000000000000000000000000000000000000000000000000000000008152600401610bad90612cf7565b60405180910390fd5b610bc38286868403610e98565b60019250505092915050565b600080610bda610e90565b9050610be78185856110ef565b600191505092915050565b6000610c0f60016000848152602001908152602001600020611809565b9050919050565b7f9f2df0fed2c77648de5860a4cc508cd0818c85b8b8a1ab4ceeef8d981c8956a681565b610c438261071d565b610c4c81611373565b610c5683836113bb565b505050565b6000600360008473ffffffffffffffffffffffffffffffffffffffff1673ffffffffffffffffffffffffffffffffffffffff16815260200190815260200160002060008373ffffffffffffffffffffffffffffffffffffffff1673ffffffffffffffffffffffffffffffffffffffff16815260200190815260200160002054905092915050565b7f65d7a28e3265b37a6474929f336521b332c1681b933f6cb9f3376673440d862a81565b610d108282610a55565b610de257600160008084815260200190815260200160002060000160008373ffffffffffffffffffffffffffffffffffffffff1673ffffffffffffffffffffffffffffffffffffffff16815260200190815260200160002060006101000a81548160ff021916908315150217905550610d87610e90565b73ffffffffffffffffffffffffffffffffffffffff168173ffffffffffffffffffffffffffffffffffffffff16837f2f8788117e7eff1d82e926ec794901d17c78024a50270940304540a733656f0d60405160405180910390a45b5050565b6000610e0e836000018373ffffffffffffffffffffffffffffffffffffffff1660001b61181e565b905092915050565b60007f7965db0b000000000000000000000000000000000000000000000000000000007bffffffffffffffffffffffffffffffffffffffffffffffffffffffff1916827bffffffffffffffffffffffffffffffffffffffffffffffffffffffff19161480610e895750610e888261188e565b5b9050919050565b600033905090565b600073ffffffffffffffffffffffffffffffffffffffff168373ffffffffffffffffffffffffffffffffffffffff161415610f08576040517f08c379a0000000000000000000000000000000000000000000000000000000008152600401610eff90612cb7565b60405180910390fd5b600073ffffffffffffffffffffffffffffffffffffffff168273ffffffffffffffffffffffffffffffffffffffff161415610f78576040517f08c379a0000000000000000000000000000000000000000000000000000000008152600401610f6f90612bd7565b60405180910390fd5b80600360008573ffffffffffffffffffffffffffffffffffffffff1673ffffffffffffffffffffffffffffffffffffffff16815260200190815260200160002060008473ffffffffffffffffffffffffffffffffffffffff1673ffffffffffffffffffffffffffffffffffffffff168152602001908152602001600020819055508173ffffffffffffffffffffffffffffffffffffffff168373ffffffffffffffffffffffffffffffffffffffff167f8c5be1e5ebec7d5bd14f71427d1e84f3dd0314c0f7b2291e5b200ac8c7c3b925836040516110569190612d77565b60405180910390a3505050565b600061106f8484610c5b565b90507fffffffffffffffffffffffffffffffffffffffffffffffffffffffffffffffff81146110e957818110156110db576040517f08c379a00000000000000000000000000000000000000000000000000000000081526004016110d290612bf7565b60405180910390fd5b6110e88484848403610e98565b5b50505050565b600073ffffffffffffffffffffffffffffffffffffffff168373ffffffffffffffffffffffffffffffffffffffff16141561115f576040517f08c379a000000000000000000000000000000000000000000000000000000000815260040161115690612c97565b60405180910390fd5b600073ffffffffffffffffffffffffffffffffffffffff168273ffffffffffffffffffffffffffffffffffffffff1614156111cf576040517f08c379a00000000000000000000000000000000000000000000000000000000081526004016111c690612b57565b60405180910390fd5b6111da8383836118f8565b6000600260008573ffffffffffffffffffffffffffffffffffffffff1673ffffffffffffffffffffffffffffffffffffffff16815260200190815260200160002054905081811015611261576040517f08c379a000000000000000000000000000000000000000000000000000000000815260040161125890612c17565b60405180910390fd5b818103600260008673ffffffffffffffffffffffffffffffffffffffff1673ffffffffffffffffffffffffffffffffffffffff1681526020019081526020016000208190555081600260008573ffffffffffffffffffffffffffffffffffffffff1673ffffffffffffffffffffffffffffffffffffffff16815260200190815260200160002060008282546112f69190612dd4565b925050819055508273ffffffffffffffffffffffffffffffffffffffff168473ffffffffffffffffffffffffffffffffffffffff167fddf252ad1be2c89b69c2b068fc378daa952ba7f163c4a11628f55a4df523b3ef8460405161135a9190612d77565b60405180910390a361136d848484611908565b50505050565b6113848161137f610e90565b61190d565b50565b6113918282610d06565b6113b68160016000858152602001908152602001600020610de690919063ffffffff16565b505050565b6113c582826119aa565b6113ea8160016000858152602001908152602001600020611a8b90919063ffffffff16565b505050565b6113f7611abb565b6000600760006101000a81548160ff0219169083151502179055507f5db9ee0a495bf2e6ff9c91a7834c1ba4fdd244a5e8aa4e537bd38aeae4b073aa61143b610e90565b6040516114489190612ac4565b60405180910390a1565b600073ffffffffffffffffffffffffffffffffffffffff168273ffffffffffffffffffffffffffffffffffffffff1614156114c2576040517f08c379a00000000000000000000000000000000000000000000000000000000081526004016114b990612d37565b60405180910390fd5b6114ce600083836118f8565b80600460008282546114e09190612dd4565b9250508190555080600260008473ffffffffffffffffffffffffffffffffffffffff1673ffffffffffffffffffffffffffffffffffffffff16815260200190815260200160002060008282546115369190612dd4565b925050819055508173ffffffffffffffffffffffffffffffffffffffff16600073ffffffffffffffffffffffffffffffffffffffff167fddf252ad1be2c89b69c2b068fc378daa952ba7f163c4a11628f55a4df523b3ef8360405161159b9190612d77565b60405180910390a36115af60008383611908565b5050565b600073ffffffffffffffffffffffffffffffffffffffff168273ffffffffffffffffffffffffffffffffffffffff161415611623576040517f08c379a000000000000000000000000000000000000000000000000000000000815260040161161a90612c77565b60405180910390fd5b61162f826000836118f8565b6000600260008473ffffffffffffffffffffffffffffffffffffffff1673ffffffffffffffffffffffffffffffffffffffff168152602001908152602001600020549050818110156116b6576040517f08c379a00000000000000000000000000000000000000000000000000000000081526004016116ad90612b97565b60405180910390fd5b818103600260008573ffffffffffffffffffffffffffffffffffffffff1673ffffffffffffffffffffffffffffffffffffffff16815260200190815260200160002081905550816004600082825461170e9190612e84565b92505081905550600073ffffffffffffffffffffffffffffffffffffffff168373ffffffffffffffffffffffffffffffffffffffff167fddf252ad1be2c89b69c2b068fc378daa952ba7f163c4a11628f55a4df523b3ef846040516117739190612d77565b60405180910390a361178783600084611908565b505050565b611794611b04565b6001600760006101000a81548160ff0219169083151502179055507f62e78cea01bee320cd4e420270b5ea74000d11b0c9f74754ebdbfc544b05a2586117d8610e90565b6040516117e59190612ac4565b60405180910390a1565b60006117fe8360000183611b4e565b60001c905092915050565b600061181782600001611b9f565b9050919050565b600061182a8383611bb0565b611883578260000182908060018154018082558091505060019003906000526020600020016000909190919091505582600001805490508360010160008481526020019081526020016000208190555060019050611888565b600090505b92915050565b60007f01ffc9a7000000000000000000000000000000000000000000000000000000007bffffffffffffffffffffffffffffffffffffffffffffffffffffffff1916827bffffffffffffffffffffffffffffffffffffffffffffffffffffffff1916149050919050565b611903838383611bd3565b505050565b505050565b6119178282610a55565b6119a65761193c8173ffffffffffffffffffffffffffffffffffffffff166014611c2b565b61194a8360001c6020611c2b565b60405160200161195b929190612a8a565b6040516020818303038152906040526040517f08c379a000000000000000000000000000000000000000000000000000000000815260040161199d9190612b15565b60405180910390fd5b5050565b6119b48282610a55565b15611a8757600080600084815260200190815260200160002060000160008373ffffffffffffffffffffffffffffffffffffffff1673ffffffffffffffffffffffffffffffffffffffff16815260200190815260200160002060006101000a81548160ff021916908315150217905550611a2c610e90565b73ffffffffffffffffffffffffffffffffffffffff168173ffffffffffffffffffffffffffffffffffffffff16837ff6391f5c32d9c69d2a47ea670b442974b53935d1edc7fd64eb21e047a839171b60405160405180910390a45b5050565b6000611ab3836000018373ffffffffffffffffffffffffffffffffffffffff1660001b611f25565b905092915050565b611ac361092c565b611b02576040517f08c379a0000000000000000000000000000000000000000000000000000000008152600401611af990612b77565b60405180910390fd5b565b611b0c61092c565b15611b4c576040517f08c379a0000000000000000000000000000000000000000000000000000000008152600401611b4390612c37565b60405180910390fd5b565b6000826000018281548110611b8c577f4e487b7100000000000000000000000000000000000000000000000000000000600052603260045260246000fd5b9060005260206000200154905092915050565b600081600001805490509050919050565b600080836001016000848152602001908152602001600020541415905092915050565b611bde8383836120ab565b611be661092c565b15611c26576040517f08c379a0000000000000000000000000000000000000000000000000000000008152600401611c1d90612d57565b60405180910390fd5b505050565b606060006002836002611c3e9190612e2a565b611c489190612dd4565b67ffffffffffffffff811115611c87577f4e487b7100000000000000000000000000000000000000000000000000000000600052604160045260246000fd5b6040519080825280601f01601f191660200182016040528015611cb95781602001600182028036833780820191505090505b5090507f300000000000000000000000000000000000000000000000000000000000000081600081518110611d17577f4e487b7100000000000000000000000000000000000000000000000000000000600052603260045260246000fd5b60200101907effffffffffffffffffffffffffffffffffffffffffffffffffffffffffffff1916908160001a9053507f780000000000000000000000000000000000000000000000000000000000000081600181518110611da1577f4e487b7100000000000000000000000000000000000000000000000000000000600052603260045260246000fd5b60200101907effffffffffffffffffffffffffffffffffffffffffffffffffffffffffffff1916908160001a90535060006001846002611de19190612e2a565b611deb9190612dd4565b90505b6001811115611ed7577f3031323334353637383961626364656600000000000000000000000000000000600f861660108110611e53577f4e487b7100000000000000000000000000000000000000000000000000000000600052603260045260246000fd5b1a60f81b828281518110611e90577f4e487b7100000000000000000000000000000000000000000000000000000000600052603260045260246000fd5b60200101907effffffffffffffffffffffffffffffffffffffffffffffffffffffffffffff1916908160001a905350600485901c945080611ed090612f76565b9050611dee565b5060008414611f1b576040517f08c379a0000000000000000000000000000000000000000000000000000000008152600401611f1290612b37565b60405180910390fd5b8091505092915050565b6000808360010160008481526020019081526020016000205490506000811461209f576000600182611f579190612e84565b9050600060018660000180549050611f6f9190612e84565b905081811461202a576000866000018281548110611fb6577f4e487b7100000000000000000000000000000000000000000000000000000000600052603260045260246000fd5b9060005260206000200154905080876000018481548110612000577f4e487b7100000000000000000000000000000000000000000000000000000000600052603260045260246000fd5b90600052602060002001819055508387600101600083815260200190815260200160002081905550505b85600001805480612064577f4e487b7100000000000000000000000000000000000000000000000000000000600052603160045260246000fd5b6001900381819060005260206000200160009055905585600101600086815260200190815260200160002060009055600193505050506120a5565b60009150505b92915050565b505050565b6000813590506120bf81613041565b92915050565b6000813590506120d481613058565b92915050565b6000813590506120e98161306f565b92915050565b6000813590506120fe81613086565b92915050565b60006020828403121561211657600080fd5b6000612124848285016120b0565b91505092915050565b6000806040838503121561214057600080fd5b600061214e858286016120b0565b925050602061215f858286016120b0565b9150509250929050565b60008060006060848603121561217e57600080fd5b600061218c868287016120b0565b935050602061219d868287016120b0565b92505060406121ae868287016120ef565b9150509250925092565b600080604083850312156121cb57600080fd5b60006121d9858286016120b0565b92505060206121ea858286016120ef565b9150509250929050565b60006020828403121561220657600080fd5b6000612214848285016120c5565b91505092915050565b6000806040838503121561223057600080fd5b600061223e858286016120c5565b925050602061224f858286016120b0565b9150509250929050565b6000806040838503121561226c57600080fd5b600061227a858286016120c5565b925050602061228b858286016120ef565b9150509250929050565b6000602082840312156122a757600080fd5b60006122b5848285016120da565b91505092915050565b6000602082840312156122d057600080fd5b60006122de848285016120ef565b91505092915050565b6122f081612eb8565b82525050565b6122ff81612eca565b82525050565b61230e81612ed6565b82525050565b600061231f82612dad565b6123298185612db8565b9350612339818560208601612f43565b61234281613030565b840191505092915050565b600061235882612dad565b6123628185612dc9565b9350612372818560208601612f43565b80840191505092915050565b600061238b602083612db8565b91507f537472696e67733a20686578206c656e67746820696e73756666696369656e746000830152602082019050919050565b60006123cb602383612db8565b91507f45524332303a207472616e7366657220746f20746865207a65726f206164647260008301527f65737300000000000000000000000000000000000000000000000000000000006020830152604082019050919050565b6000612431601483612db8565b91507f5061757361626c653a206e6f74207061757365640000000000000000000000006000830152602082019050919050565b6000612471602283612db8565b91507f45524332303a206275726e20616d6f756e7420657863656564732062616c616e60008301527f63650000000000000000000000000000000000000000000000000000000000006020830152604082019050919050565b60006124d7603983612db8565b91507f45524332305072657365744d696e7465725061757365723a206d75737420686160008301527f76652070617573657220726f6c6520746f20756e7061757365000000000000006020830152604082019050919050565b600061253d602283612db8565b91507f45524332303a20617070726f766520746f20746865207a65726f20616464726560008301527f73730000000000000000000000000000000000000000000000000000000000006020830152604082019050919050565b60006125a3601d83612db8565b91507f45524332303a20696e73756666696369656e7420616c6c6f77616e63650000006000830152602082019050919050565b60006125e3602683612db8565b91507f45524332303a207472616e7366657220616d6f756e742065786365656473206260008301527f616c616e636500000000000000000000000000000000000000000000000000006020830152604082019050919050565b6000612649601083612db8565b91507f5061757361626c653a20706175736564000000000000000000000000000000006000830152602082019050919050565b6000612689603683612db8565b91507f45524332305072657365744d696e7465725061757365723a206d75737420686160008301527f7665206d696e74657220726f6c6520746f206d696e74000000000000000000006020830152604082019050919050565b60006126ef602183612db8565b91507f45524332303a206275726e2066726f6d20746865207a65726f2061646472657360008301527f73000000000000000000000000000000000000000000000000000000000000006020830152604082019050919050565b6000612755602583612db8565b91507f45524332303a207472616e736665722066726f6d20746865207a65726f20616460008301527f64726573730000000000000000000000000000000000000000000000000000006020830152604082019050919050565b60006127bb602483612db8565b91507f45524332303a20617070726f76652066726f6d20746865207a65726f2061646460008301527f72657373000000000000000000000000000000000000000000000000000000006020830152604082019050919050565b6000612821603783612db8565b91507f45524332305072657365744d696e7465725061757365723a206d75737420686160008301527f76652070617573657220726f6c6520746f2070617573650000000000000000006020830152604082019050919050565b6000612887601783612dc9565b91507f416363657373436f6e74726f6c3a206163636f756e74200000000000000000006000830152601782019050919050565b60006128c7602583612db8565b91507f45524332303a2064656372656173656420616c6c6f77616e63652062656c6f7760008301527f207a65726f0000000000000000000000000000000000000000000000000000006020830152604082019050919050565b600061292d601183612dc9565b91507f206973206d697373696e6720726f6c65200000000000000000000000000000006000830152601182019050919050565b600061296d602f83612db8565b91507f416363657373436f6e74726f6c3a2063616e206f6e6c792072656e6f756e636560008301527f20726f6c657320666f722073656c6600000000000000000000000000000000006020830152604082019050919050565b60006129d3601f83612db8565b91507f45524332303a206d696e7420746f20746865207a65726f2061646472657373006000830152602082019050919050565b6000612a13602a83612db8565b91507f45524332305061757361626c653a20746f6b656e207472616e7366657220776860008301527f696c6520706175736564000000000000000000000000000000000000000000006020830152604082019050919050565b612a7581612f2c565b82525050565b612a8481612f36565b82525050565b6000612a958261287a565b9150612aa1828561234d565b9150612aac82612920565b9150612ab8828461234d565b91508190509392505050565b6000602082019050612ad960008301846122e7565b92915050565b6000602082019050612af460008301846122f6565b92915050565b6000602082019050612b0f6000830184612305565b92915050565b60006020820190508181036000830152612b2f8184612314565b905092915050565b60006020820190508181036000830152612b508161237e565b9050919050565b60006020820190508181036000830152612b70816123be565b9050919050565b60006020820190508181036000830152612b9081612424565b9050919050565b60006020820190508181036000830152612bb081612464565b9050919050565b60006020820190508181036000830152612bd0816124ca565b9050919050565b60006020820190508181036000830152612bf081612530565b9050919050565b60006020820190508181036000830152612c1081612596565b9050919050565b60006020820190508181036000830152612c30816125d6565b9050919050565b60006020820190508181036000830152612c508161263c565b9050919050565b60006020820190508181036000830152612c708161267c565b9050919050565b60006020820190508181036000830152612c90816126e2565b9050919050565b60006020820190508181036000830152612cb081612748565b9050919050565b60006020820190508181036000830152612cd0816127ae565b9050919050565b60006020820190508181036000830152612cf081612814565b9050919050565b60006020820190508181036000830152612d10816128ba565b9050919050565b60006020820190508181036000830152612d3081612960565b9050919050565b60006020820190508181036000830152612d50816129c6565b9050919050565b60006020820190508181036000830152612d7081612a06565b9050919050565b6000602082019050612d8c6000830184612a6c565b92915050565b6000602082019050612da76000830184612a7b565b92915050565b600081519050919050565b600082825260208201905092915050565b600081905092915050565b6000612ddf82612f2c565b9150612dea83612f2c565b9250827fffffffffffffffffffffffffffffffffffffffffffffffffffffffffffffffff03821115612e1f57612e1e612fd2565b5b828201905092915050565b6000612e3582612f2c565b9150612e4083612f2c565b9250817fffffffffffffffffffffffffffffffffffffffffffffffffffffffffffffffff0483118215151615612e7957612e78612fd2565b5b828202905092915050565b6000612e8f82612f2c565b9150612e9a83612f2c565b925082821015612ead57612eac612fd2565b5b828203905092915050565b6000612ec382612f0c565b9050919050565b60008115159050919050565b6000819050919050565b60007fffffffff0000000000000000000000000000000000000000000000000000000082169050919050565b600073ffffffffffffffffffffffffffffffffffffffff82169050919050565b6000819050919050565b600060ff82169050919050565b60005b83811015612f61578082015181840152602081019050612f46565b83811115612f70576000848401525b50505050565b6000612f8182612f2c565b91506000821415612f9557612f94612fd2565b5b600182039050919050565b60006002820490506001821680612fb857607f821691505b60208210811415612fcc57612fcb613001565b5b50919050565b7f4e487b7100000000000000000000000000000000000000000000000000000000600052601160045260246000fd5b7f4e487b7100000000000000000000000000000000000000000000000000000000600052602260045260246000fd5b6000601f19601f8301169050919050565b61304a81612eb8565b811461305557600080fd5b50565b61306181612ed6565b811461306c57600080fd5b50565b61307881612ee0565b811461308357600080fd5b50565b61308f81612f2c565b811461309a57600080fd5b5056fea26469706673582212203b5390be34c9742d5553911e9b7c228f5d83dff635947db7b575c9f8ae61d13064736f6c63430008000033",
  "linkReferences": {},
  "deployedLinkReferences": {}
}